{
  "_format": "hh-sol-artifact-1",
  "contractName": "HotelBooking",
  "sourceName": "contracts/HotelBooking.sol",
  "abi": [
    {
      "inputs": [],
      "stateMutability": "nonpayable",
      "type": "constructor"
    },
    {
      "anonymous": false,
      "inputs": [
        {
          "indexed": true,
          "internalType": "uint256",
          "name": "bookingId",
          "type": "uint256"
        },
        {
          "indexed": true,
          "internalType": "address",
          "name": "guest",
          "type": "address"
        }
      ],
      "name": "BookingCancelled",
      "type": "event"
    },
    {
      "anonymous": false,
      "inputs": [
        {
          "indexed": true,
          "internalType": "uint256",
          "name": "bookingId",
          "type": "uint256"
        },
        {
          "indexed": true,
          "internalType": "address",
          "name": "propertyOwner",
          "type": "address"
        }
      ],
      "name": "BookingCheckedIn",
      "type": "event"
    },
    {
      "anonymous": false,
      "inputs": [
        {
          "indexed": true,
          "internalType": "uint256",
          "name": "bookingId",
          "type": "uint256"
        },
        {
          "indexed": true,
          "internalType": "address",
          "name": "propertyOwner",
          "type": "address"
        }
      ],
      "name": "BookingCheckedOut",
      "type": "event"
    },
    {
      "anonymous": false,
      "inputs": [
        {
          "indexed": true,
          "internalType": "uint256",
          "name": "bookingId",
          "type": "uint256"
        },
        {
          "indexed": true,
          "internalType": "address",
          "name": "propertyOwner",
          "type": "address"
        }
      ],
      "name": "BookingConfirmed",
      "type": "event"
    },
    {
      "anonymous": false,
      "inputs": [
        {
          "indexed": true,
          "internalType": "uint256",
          "name": "bookingId",
          "type": "uint256"
        },
        {
          "indexed": true,
          "internalType": "uint256",
          "name": "propertyId",
          "type": "uint256"
        },
        {
          "indexed": true,
          "internalType": "address",
          "name": "guest",
          "type": "address"
        }
      ],
      "name": "BookingCreated",
      "type": "event"
    },
    {
      "anonymous": false,
      "inputs": [
        {
          "indexed": true,
          "internalType": "uint256",
          "name": "bookingId",
          "type": "uint256"
        },
        {
          "indexed": true,
          "internalType": "address",
          "name": "propertyOwner",
          "type": "address"
        },
        {
          "indexed": false,
          "internalType": "uint256",
          "name": "amount",
          "type": "uint256"
        }
      ],
      "name": "PaymentReleased",
      "type": "event"
    },
    {
      "anonymous": false,
      "inputs": [
        {
          "indexed": true,
          "internalType": "uint256",
          "name": "propertyId",
          "type": "uint256"
        },
        {
          "indexed": true,
          "internalType": "address",
          "name": "owner",
          "type": "address"
        },
        {
          "indexed": false,
          "internalType": "string",
          "name": "name",
          "type": "string"
        }
      ],
      "name": "PropertyCreated",
      "type": "event"
    },
    {
      "anonymous": false,
      "inputs": [
        {
          "indexed": true,
          "internalType": "uint256",
          "name": "propertyId",
          "type": "uint256"
        },
        {
          "indexed": true,
          "internalType": "address",
          "name": "owner",
          "type": "address"
        }
      ],
      "name": "PropertyDeactivated",
      "type": "event"
    },
    {
      "anonymous": false,
      "inputs": [
        {
          "indexed": true,
          "internalType": "uint256",
          "name": "propertyId",
          "type": "uint256"
        },
        {
          "indexed": true,
          "internalType": "address",
          "name": "owner",
          "type": "address"
        }
      ],
      "name": "PropertyUpdated",
      "type": "event"
    },
    {
      "anonymous": false,
      "inputs": [
        {
          "indexed": true,
          "internalType": "uint256",
          "name": "bookingId",
          "type": "uint256"
        },
        {
          "indexed": true,
          "internalType": "address",
          "name": "guest",
          "type": "address"
        },
        {
          "indexed": false,
          "internalType": "uint256",
          "name": "amount",
          "type": "uint256"
        }
      ],
      "name": "RefundIssued",
      "type": "event"
    },
    {
      "inputs": [],
      "name": "WLD_TOKEN",
      "outputs": [
        {
          "internalType": "contract IERC20",
          "name": "",
          "type": "address"
        }
      ],
      "stateMutability": "view",
      "type": "function"
    },
    {
      "inputs": [
        {
          "internalType": "uint256",
          "name": "propertyId",
          "type": "uint256"
        }
      ],
      "name": "activateProperty",
      "outputs": [],
      "stateMutability": "nonpayable",
      "type": "function"
    },
    {
      "inputs": [
        {
          "internalType": "uint256",
          "name": "",
          "type": "uint256"
        }
      ],
      "name": "bookings",
      "outputs": [
        {
          "internalType": "uint256",
          "name": "id",
          "type": "uint256"
        },
        {
          "internalType": "uint256",
          "name": "propertyId",
          "type": "uint256"
        },
        {
          "internalType": "address",
          "name": "guest",
          "type": "address"
        },
        {
          "internalType": "uint256",
          "name": "checkInDate",
          "type": "uint256"
        },
        {
          "internalType": "uint256",
          "name": "checkOutDate",
          "type": "uint256"
        },
        {
          "internalType": "uint256",
          "name": "totalAmount",
          "type": "uint256"
        },
        {
          "internalType": "uint256",
          "name": "guestCount",
          "type": "uint256"
        },
        {
          "internalType": "enum HotelBooking.BookingStatus",
          "name": "status",
          "type": "uint8"
        },
        {
          "internalType": "uint256",
          "name": "createdAt",
          "type": "uint256"
        }
      ],
      "stateMutability": "view",
      "type": "function"
    },
    {
      "inputs": [
        {
          "internalType": "uint256",
          "name": "bookingId",
          "type": "uint256"
        }
      ],
      "name": "cancelBooking",
      "outputs": [],
      "stateMutability": "nonpayable",
      "type": "function"
    },
    {
      "inputs": [
        {
          "internalType": "uint256",
          "name": "bookingId",
          "type": "uint256"
        }
      ],
      "name": "checkIn",
      "outputs": [],
      "stateMutability": "nonpayable",
      "type": "function"
    },
    {
      "inputs": [
        {
          "internalType": "uint256",
          "name": "bookingId",
          "type": "uint256"
        }
      ],
      "name": "checkOut",
      "outputs": [],
      "stateMutability": "nonpayable",
      "type": "function"
    },
    {
      "inputs": [
        {
          "internalType": "uint256",
          "name": "bookingId",
          "type": "uint256"
        }
      ],
      "name": "confirmBooking",
      "outputs": [],
      "stateMutability": "nonpayable",
      "type": "function"
    },
    {
      "inputs": [
        {
          "internalType": "uint256",
          "name": "propertyId",
          "type": "uint256"
        },
        {
          "internalType": "uint256",
          "name": "checkInDate",
          "type": "uint256"
        },
        {
          "internalType": "uint256",
          "name": "checkOutDate",
          "type": "uint256"
        },
        {
          "internalType": "uint256",
          "name": "guestCount",
          "type": "uint256"
        },
        {
          "internalType": "uint256",
          "name": "totalAmount",
          "type": "uint256"
        }
      ],
      "name": "createBooking",
      "outputs": [
        {
          "internalType": "uint256",
          "name": "",
          "type": "uint256"
        }
      ],
      "stateMutability": "nonpayable",
      "type": "function"
    },
    {
      "inputs": [
        {
          "internalType": "string",
          "name": "name",
          "type": "string"
        },
        {
          "internalType": "string",
          "name": "description",
          "type": "string"
        },
        {
          "internalType": "string",
          "name": "location",
          "type": "string"
        },
        {
          "internalType": "string[]",
          "name": "imageUrls",
          "type": "string[]"
        },
        {
          "internalType": "uint256",
          "name": "pricePerNight",
          "type": "uint256"
        },
        {
          "internalType": "uint256",
          "name": "maxGuests",
          "type": "uint256"
        }
      ],
      "name": "createProperty",
      "outputs": [
        {
          "internalType": "uint256",
          "name": "",
          "type": "uint256"
        }
      ],
      "stateMutability": "nonpayable",
      "type": "function"
    },
    {
      "inputs": [
        {
          "internalType": "uint256",
          "name": "propertyId",
          "type": "uint256"
        }
      ],
      "name": "deactivateProperty",
      "outputs": [],
      "stateMutability": "nonpayable",
      "type": "function"
    },
    {
      "inputs": [],
      "name": "emergencyWithdraw",
      "outputs": [],
      "stateMutability": "nonpayable",
      "type": "function"
    },
    {
      "inputs": [],
      "name": "getAllActiveProperties",
      "outputs": [
        {
          "components": [
            {
              "internalType": "uint256",
              "name": "id",
              "type": "uint256"
            },
            {
              "internalType": "address",
              "name": "owner",
              "type": "address"
            },
            {
              "internalType": "string",
              "name": "name",
              "type": "string"
            },
            {
              "internalType": "string",
              "name": "description",
              "type": "string"
            },
            {
              "internalType": "string",
              "name": "location",
              "type": "string"
            },
            {
              "internalType": "string[]",
              "name": "imageUrls",
              "type": "string[]"
            },
            {
              "internalType": "uint256",
              "name": "pricePerNight",
              "type": "uint256"
            },
            {
              "internalType": "uint256",
              "name": "maxGuests",
              "type": "uint256"
            },
            {
              "internalType": "bool",
              "name": "isActive",
              "type": "bool"
            },
            {
              "internalType": "uint256",
              "name": "createdAt",
              "type": "uint256"
            }
          ],
          "internalType": "struct HotelBooking.Property[]",
          "name": "",
          "type": "tuple[]"
        }
      ],
      "stateMutability": "view",
      "type": "function"
    },
    {
      "inputs": [
        {
          "internalType": "uint256",
          "name": "bookingId",
          "type": "uint256"
        }
      ],
      "name": "getBooking",
      "outputs": [
        {
          "components": [
            {
              "internalType": "uint256",
              "name": "id",
              "type": "uint256"
            },
            {
              "internalType": "uint256",
              "name": "propertyId",
              "type": "uint256"
            },
            {
              "internalType": "address",
              "name": "guest",
              "type": "address"
            },
            {
              "internalType": "uint256",
              "name": "checkInDate",
              "type": "uint256"
            },
            {
              "internalType": "uint256",
              "name": "checkOutDate",
              "type": "uint256"
            },
            {
              "internalType": "uint256",
              "name": "totalAmount",
              "type": "uint256"
            },
            {
              "internalType": "uint256",
              "name": "guestCount",
              "type": "uint256"
            },
            {
              "internalType": "enum HotelBooking.BookingStatus",
              "name": "status",
              "type": "uint8"
            },
            {
              "internalType": "uint256",
              "name": "createdAt",
              "type": "uint256"
            }
          ],
          "internalType": "struct HotelBooking.Booking",
          "name": "",
          "type": "tuple"
        }
      ],
      "stateMutability": "view",
      "type": "function"
    },
    {
      "inputs": [
        {
          "internalType": "address",
          "name": "guest",
          "type": "address"
        }
      ],
      "name": "getGuestBookings",
      "outputs": [
        {
          "internalType": "uint256[]",
          "name": "",
          "type": "uint256[]"
        }
      ],
      "stateMutability": "view",
      "type": "function"
    },
    {
      "inputs": [
        {
          "internalType": "address",
          "name": "owner",
          "type": "address"
        }
      ],
      "name": "getOwnerProperties",
      "outputs": [
        {
          "internalType": "uint256[]",
          "name": "",
          "type": "uint256[]"
        }
      ],
      "stateMutability": "view",
      "type": "function"
    },
    {
      "inputs": [
        {
          "internalType": "uint256",
          "name": "propertyId",
          "type": "uint256"
        }
      ],
      "name": "getProperty",
      "outputs": [
        {
          "components": [
            {
              "internalType": "uint256",
              "name": "id",
              "type": "uint256"
            },
            {
              "internalType": "address",
              "name": "owner",
              "type": "address"
            },
            {
              "internalType": "string",
              "name": "name",
              "type": "string"
            },
            {
              "internalType": "string",
              "name": "description",
              "type": "string"
            },
            {
              "internalType": "string",
              "name": "location",
              "type": "string"
            },
            {
              "internalType": "string[]",
              "name": "imageUrls",
              "type": "string[]"
            },
            {
              "internalType": "uint256",
              "name": "pricePerNight",
              "type": "uint256"
            },
            {
              "internalType": "uint256",
              "name": "maxGuests",
              "type": "uint256"
            },
            {
              "internalType": "bool",
              "name": "isActive",
              "type": "bool"
            },
            {
              "internalType": "uint256",
              "name": "createdAt",
              "type": "uint256"
            }
          ],
          "internalType": "struct HotelBooking.Property",
          "name": "",
          "type": "tuple"
        }
      ],
      "stateMutability": "view",
      "type": "function"
    },
    {
      "inputs": [
        {
          "internalType": "uint256",
          "name": "propertyId",
          "type": "uint256"
        }
      ],
      "name": "getPropertyBookings",
      "outputs": [
        {
          "internalType": "uint256[]",
          "name": "",
          "type": "uint256[]"
        }
      ],
      "stateMutability": "view",
      "type": "function"
    },
    {
      "inputs": [
        {
          "internalType": "address",
          "name": "",
          "type": "address"
        },
        {
          "internalType": "uint256",
          "name": "",
          "type": "uint256"
        }
      ],
      "name": "guestBookings",
      "outputs": [
        {
          "internalType": "uint256",
          "name": "",
          "type": "uint256"
        }
      ],
      "stateMutability": "view",
      "type": "function"
    },
    {
      "inputs": [
        {
          "internalType": "uint256",
          "name": "propertyId",
          "type": "uint256"
        },
        {
          "internalType": "uint256",
          "name": "checkIn",
          "type": "uint256"
        },
        {
          "internalType": "uint256",
          "name": "checkOut",
          "type": "uint256"
        }
      ],
      "name": "isPropertyBooked",
      "outputs": [
        {
          "internalType": "bool",
          "name": "",
          "type": "bool"
        }
      ],
      "stateMutability": "view",
      "type": "function"
    },
    {
      "inputs": [],
      "name": "nextBookingId",
      "outputs": [
        {
          "internalType": "uint256",
          "name": "",
          "type": "uint256"
        }
      ],
      "stateMutability": "view",
      "type": "function"
    },
    {
      "inputs": [],
      "name": "nextPropertyId",
      "outputs": [
        {
          "internalType": "uint256",
          "name": "",
          "type": "uint256"
        }
      ],
      "stateMutability": "view",
      "type": "function"
    },
    {
      "inputs": [
        {
          "internalType": "address",
          "name": "",
          "type": "address"
        },
        {
          "internalType": "uint256",
          "name": "",
          "type": "uint256"
        }
      ],
      "name": "ownerProperties",
      "outputs": [
        {
          "internalType": "uint256",
          "name": "",
          "type": "uint256"
        }
      ],
      "stateMutability": "view",
      "type": "function"
    },
    {
      "inputs": [],
      "name": "platformFeePercentage",
      "outputs": [
        {
          "internalType": "uint256",
          "name": "",
          "type": "uint256"
        }
      ],
      "stateMutability": "view",
      "type": "function"
    },
    {
      "inputs": [],
      "name": "platformOwner",
      "outputs": [
        {
          "internalType": "address",
          "name": "",
          "type": "address"
        }
      ],
      "stateMutability": "view",
      "type": "function"
    },
    {
      "inputs": [
        {
          "internalType": "uint256",
          "name": "",
          "type": "uint256"
        }
      ],
      "name": "properties",
      "outputs": [
        {
          "internalType": "uint256",
          "name": "id",
          "type": "uint256"
        },
        {
          "internalType": "address",
          "name": "owner",
          "type": "address"
        },
        {
          "internalType": "string",
          "name": "name",
          "type": "string"
        },
        {
          "internalType": "string",
          "name": "description",
          "type": "string"
        },
        {
          "internalType": "string",
          "name": "location",
          "type": "string"
        },
        {
          "internalType": "uint256",
          "name": "pricePerNight",
          "type": "uint256"
        },
        {
          "internalType": "uint256",
          "name": "maxGuests",
          "type": "uint256"
        },
        {
          "internalType": "bool",
          "name": "isActive",
          "type": "bool"
        },
        {
          "internalType": "uint256",
          "name": "createdAt",
          "type": "uint256"
        }
      ],
      "stateMutability": "view",
      "type": "function"
    },
    {
      "inputs": [
        {
          "internalType": "uint256",
          "name": "",
          "type": "uint256"
        },
        {
          "internalType": "uint256",
          "name": "",
          "type": "uint256"
        }
      ],
      "name": "propertyBookings",
      "outputs": [
        {
          "internalType": "uint256",
          "name": "",
          "type": "uint256"
        }
      ],
      "stateMutability": "view",
      "type": "function"
    },
    {
      "inputs": [
        {
          "internalType": "uint256",
          "name": "newFeePercentage",
          "type": "uint256"
        }
      ],
      "name": "setPlatformFee",
      "outputs": [],
      "stateMutability": "nonpayable",
      "type": "function"
    },
    {
      "inputs": [
        {
          "internalType": "uint256",
          "name": "propertyId",
          "type": "uint256"
        },
        {
          "internalType": "string",
          "name": "name",
          "type": "string"
        },
        {
          "internalType": "string",
          "name": "description",
          "type": "string"
        },
        {
          "internalType": "string",
          "name": "location",
          "type": "string"
        },
        {
          "internalType": "string[]",
          "name": "imageUrls",
          "type": "string[]"
        },
        {
          "internalType": "uint256",
          "name": "pricePerNight",
          "type": "uint256"
        },
        {
          "internalType": "uint256",
          "name": "maxGuests",
          "type": "uint256"
        }
      ],
      "name": "updateProperty",
      "outputs": [],
      "stateMutability": "nonpayable",
      "type": "function"
    }
  ],
  "bytecode": "0x608060405260016005556001600655600560075534801561001f57600080fd5b50600880546001600160a01b03191633179055613578806100416000396000f3fe608060405234801561001057600080fd5b50600436106101c45760003560e01c806363809aef116100f9578063a41cfa6911610097578063cdd78cfc11610071578063cdd78cfc14610455578063db2e21bc1461045e578063e95a644f14610466578063f7b108081461047957600080fd5b8063a41cfa6914610414578063cb64489714610427578063cdb7354a1461043a57600080fd5b806371c5acdb116100d357806371c5acdb146103c85780637b9afeed146103db5780637ca28bc6146103ee5780638f48bd5b1461040157600080fd5b806363809aef14610380578063659bba9d146103935780636a5c841a146103a857600080fd5b80631dab301e1161016657806339500f341161014057806339500f34146103265780634df8ccb11461032f57806354056b691461035a578063545818a41461036d57600080fd5b80631dab301e1461028057806326f20c79146102fd57806332665ffb1461030657600080fd5b80630dca825e116101a25780630dca825e1461022657806312e8e2c3146102395780631bd2eeee1461024c5780631d5caf271461025f57600080fd5b806301a24285146101c95780630891a48f146101f1578063097b6be314610206575b600080fd5b6101dc6101d7366004612afa565b6104a1565b60405190151581526020015b60405180910390f35b6102046101ff366004612b26565b610650565b005b610219610214366004612b26565b6106e2565b6040516101e89190612b3f565b610204610234366004612b26565b610744565b610204610247366004612b26565b6109be565b61020461025a366004612b26565b610a5b565b61027261026d366004612b83565b610d14565b6040519081526020016101e8565b6102e861028e366004612b26565b600160208190526000918252604090912080549181015460028201546003830154600484015460058501546006860154600787015460089097015495966001600160a01b0390951695939492939192909160ff9091169089565b6040516101e899989796959493929190612bdd565b61027260065481565b610319610314366004612b26565b610d45565b6040516101e89190612da3565b61027260055481565b600854610342906001600160a01b031681565b6040516001600160a01b0390911681526020016101e8565b610204610368366004612b26565b61107a565b61027261037b366004612f0c565b611191565b61021961038e366004612fe7565b61141d565b61039b611487565b6040516101e89190613002565b6103bb6103b6366004612b26565b61187e565b6040516101e89190613066565b6102046103d63660046130d9565b611965565b6102726103e93660046131a3565b611a66565b6102046103fc366004612b26565b611abb565b61027261040f3660046131de565b611b6c565b6102726104223660046131de565b611b88565b610219610435366004612fe7565b611ba4565b610342732cfc85d8e48f8eab294be644d9e25c303086300381565b61027260075481565b610204611c0e565b610204610474366004612b26565b611d59565b61048c610487366004612b26565b611f1e565b6040516101e899989796959493929190613208565b6000838152600460209081526040808320805482518185028101850190935280835284938301828280156104f457602002820191906000526020600020905b8154815260200190600101908083116104e0575b5050505050905060005b81518110156106425760006001600084848151811061051f5761051f613285565b60209081029190910181015182528181019290925260409081016000208151610120810183528154815260018201549381019390935260028101546001600160a01b031691830191909152600381015460608301526004810154608083015260058082015460a0840152600682015460c0840152600782015460e084019160ff909116908111156105b2576105b2612ba5565b60058111156105c3576105c3612ba5565b815260089190910154602090910152905060018160e0015160058111156105ec576105ec612ba5565b148061060d575060028160e00151600581111561060b5761060b612ba5565b145b1561063957806060015185111580610629575080608001518610155b6106395760019350505050610649565b506001016104fe565b5060009150505b9392505050565b60008181526020819052604090206001015481906001600160a01b031633146106945760405162461bcd60e51b815260040161068b9061329b565b60405180910390fd5b816000811180156106a6575060055481105b6106c25760405162461bcd60e51b815260040161068b906132c7565b50506000908152602081905260409020600801805460ff19166001179055565b60008181526004602090815260409182902080548351818402810184019094528084526060939283018282801561073857602002820191906000526020600020905b815481526020019060010190808311610724575b50505050509050919050565b80600081118015610756575060065481105b6107725760405162461bcd60e51b815260040161068b906132fe565b600082815260016020526040902060028101546001600160a01b03163314806107b85750600180820154600090815260208190526040902001546001600160a01b031633145b6107f55760405162461bcd60e51b815260206004820152600e60248201526d139bdd08185d5d1a1bdc9a5e995960921b604482015260640161068b565b6000600782015460ff16600581111561081057610810612ba5565b148061083457506001600782015460ff16600581111561083257610832612ba5565b145b6108785760405162461bcd60e51b815260206004820152601560248201527443616e6e6f742063616e63656c20626f6f6b696e6760581b604482015260640161068b565b60078101805460ff1916600417905560006108928461210e565b9050801561097c5760078201805460ff19166005179055600282015460405163a9059cbb60e01b81526001600160a01b03909116600482015260248101829052732cfc85d8e48f8eab294be644d9e25c30308630039063a9059cbb906044016020604051808303816000875af1158015610910573d6000803e3d6000fd5b505050506040513d601f19601f82011682018060405250810190610934919061332e565b5060028201546040518281526001600160a01b039091169085907f7a482fdeb6bc9a1376f597068a214a7a39472bb2eff1b8cad21ba04f49ddca1b9060200160405180910390a35b60028201546040516001600160a01b039091169085907f405ffc42ca8bb68e3a98a64aa11cec9f085da8d5fab0e36c73abff99bad8cdc990600090a350505050565b6008546001600160a01b03163314610a0d5760405162461bcd60e51b81526020600482015260126024820152712737ba10383630ba3337b9369037bbb732b960711b604482015260640161068b565b6014811115610a565760405162461bcd60e51b81526020600482015260156024820152744665652063616e6e6f74206578636565642032302560581b604482015260640161068b565b600755565b80600081118015610a6d575060065481105b610a895760405162461bcd60e51b815260040161068b906132fe565b60008281526001602081815260408084208084015485529184905290922001546001600160a01b03163314610ad05760405162461bcd60e51b815260040161068b9061329b565b6002600782015460ff166005811115610aeb57610aeb612ba5565b14610b385760405162461bcd60e51b815260206004820152601860248201527f477565737420686173206e6f7420636865636b656420696e0000000000000000604482015260640161068b565b6007818101805460ff19166003179055546005820154600091606491610b5e9190613366565b610b689190613383565b90506000818360050154610b7c91906133a5565b6001848101546000908152602081905260409081902090910154905163a9059cbb60e01b81526001600160a01b03909116600482015260248101829052909150732cfc85d8e48f8eab294be644d9e25c30308630039063a9059cbb906044016020604051808303816000875af1158015610bfa573d6000803e3d6000fd5b505050506040513d601f19601f82011682018060405250810190610c1e919061332e565b5060085460405163a9059cbb60e01b81526001600160a01b03909116600482015260248101839052732cfc85d8e48f8eab294be644d9e25c30308630039063a9059cbb906044016020604051808303816000875af1158015610c84573d6000803e3d6000fd5b505050506040513d601f19601f82011682018060405250810190610ca8919061332e565b50604051339086907fd6c7c6e64f2032fbdf5db2b71c7b7d3f9c4f29aeb3806e37ce25f326d52c5e6590600090a3604051818152339086907f21d71db5be59bb9fa133895586b7404307dd33fb93b16db09dc6f1d9d7d231b09060200160405180910390a35050505050565b60046020528160005260406000208181548110610d3057600080fd5b90600052602060002001600091509150505481565b610d4d612979565b81600081118015610d5f575060055481105b610d7b5760405162461bcd60e51b815260040161068b906132c7565b600083815260208181526040918290208251610140810184528154815260018201546001600160a01b0316928101929092526002810180549293919291840191610dc4906133b8565b80601f0160208091040260200160405190810160405280929190818152602001828054610df0906133b8565b8015610e3d5780601f10610e1257610100808354040283529160200191610e3d565b820191906000526020600020905b815481529060010190602001808311610e2057829003601f168201915b50505050508152602001600382018054610e56906133b8565b80601f0160208091040260200160405190810160405280929190818152602001828054610e82906133b8565b8015610ecf5780601f10610ea457610100808354040283529160200191610ecf565b820191906000526020600020905b815481529060010190602001808311610eb257829003601f168201915b50505050508152602001600482018054610ee8906133b8565b80601f0160208091040260200160405190810160405280929190818152602001828054610f14906133b8565b8015610f615780601f10610f3657610100808354040283529160200191610f61565b820191906000526020600020905b815481529060010190602001808311610f4457829003601f168201915b5050505050815260200160058201805480602002602001604051908101604052809291908181526020016000905b8282101561103b578382906000526020600020018054610fae906133b8565b80601f0160208091040260200160405190810160405280929190818152602001828054610fda906133b8565b80156110275780601f10610ffc57610100808354040283529160200191611027565b820191906000526020600020905b81548152906001019060200180831161100a57829003601f168201915b505050505081526020019060010190610f8f565b505050908252506006820154602082015260078201546040820152600882015460ff161515606082015260099091015460809091015291505b50919050565b8060008111801561108c575060065481105b6110a85760405162461bcd60e51b815260040161068b906132fe565b60008281526001602081815260408084208084015485529184905290922001546001600160a01b031633146110ef5760405162461bcd60e51b815260040161068b9061329b565b6000600782015460ff16600581111561110a5761110a612ba5565b146111505760405162461bcd60e51b8152602060048201526016602482015275426f6f6b696e67206973206e6f742070656e64696e6760501b604482015260640161068b565b60078101805460ff19166001179055604051339084907f32a6eab1f4a0177609cc24472e391822aae8a497472601ef3f98523b4bc7bd3190600090a3505050565b6000808751116111da5760405162461bcd60e51b81526020600482015260146024820152734e616d652063616e6e6f7420626520656d70747960601b604482015260640161068b565b6000831161122a5760405162461bcd60e51b815260206004820152601c60248201527f5072696365206d7573742062652067726561746572207468616e203000000000604482015260640161068b565b600082116112845760405162461bcd60e51b815260206004820152602160248201527f4d617820677565737473206d7573742062652067726561746572207468616e206044820152600360fc1b606482015260840161068b565b600580549081906000611296836133ec565b909155505060408051610140810182528281523360208083019182528284018c8152606084018c9052608084018b905260a084018a905260c0840189905260e0840188905260016101008501819052426101208601526000878152928390529490912083518155915193820180546001600160a01b0319166001600160a01b0390951694909417909355915190919060028201906113349082613456565b50606082015160038201906113499082613456565b506080820151600482019061135e9082613456565b5060a0820151805161137a9160058401916020909101906129d7565b5060c0820151600682015560e0820151600782015561010082015160088201805460ff191691151591909117905561012090910151600990910155336000818152600260209081526040808320805460018101825590845291909220018390555182907fdc1c922a553cc495352bcdbe90335b925277134a1e63f61e7a26e5f414364c359061140a908c90613516565b60405180910390a3979650505050505050565b6001600160a01b03811660009081526003602090815260409182902080548351818402810184019094528084526060939283018282801561073857602002820191906000526020600020908154815260200190600101908083116107245750505050509050919050565b6060600060015b6005548110156114c85760008181526020819052604090206008015460ff16156114c057816114bc816133ec565b9250505b60010161148e565b5060008167ffffffffffffffff8111156114e4576114e4612db6565b60405190808252806020026020018201604052801561151d57816020015b61150a612979565b8152602001906001900390816115025790505b509050600060015b6005548110156118755760008181526020819052604090206008015460ff161561186d57600081815260208181526040918290208251610140810184528154815260018201546001600160a01b0316928101929092526002810180549293919291840191611592906133b8565b80601f01602080910402602001604051908101604052809291908181526020018280546115be906133b8565b801561160b5780601f106115e05761010080835404028352916020019161160b565b820191906000526020600020905b8154815290600101906020018083116115ee57829003601f168201915b50505050508152602001600382018054611624906133b8565b80601f0160208091040260200160405190810160405280929190818152602001828054611650906133b8565b801561169d5780601f106116725761010080835404028352916020019161169d565b820191906000526020600020905b81548152906001019060200180831161168057829003601f168201915b505050505081526020016004820180546116b6906133b8565b80601f01602080910402602001604051908101604052809291908181526020018280546116e2906133b8565b801561172f5780601f106117045761010080835404028352916020019161172f565b820191906000526020600020905b81548152906001019060200180831161171257829003601f168201915b5050505050815260200160058201805480602002602001604051908101604052809291908181526020016000905b8282101561180957838290600052602060002001805461177c906133b8565b80601f01602080910402602001604051908101604052809291908181526020018280546117a8906133b8565b80156117f55780601f106117ca576101008083540402835291602001916117f5565b820191906000526020600020905b8154815290600101906020018083116117d857829003601f168201915b50505050508152602001906001019061175d565b505050908252506006820154602082015260078201546040820152600882015460ff1615156060820152600990910154608090910152835184908490811061185357611853613285565b60200260200101819052508180611869906133ec565b9250505b600101611525565b50909392505050565b611886612a2d565b81600081118015611898575060065481105b6118b45760405162461bcd60e51b815260040161068b906132fe565b60008381526001602081815260409283902083516101208101855281548152928101549183019190915260028101546001600160a01b031692820192909252600382015460608201526004820154608082015260058083015460a0830152600683015460c0830152600783015491929160e084019160ff9091169081111561193e5761193e612ba5565b600581111561194f5761194f612ba5565b8152602001600882015481525050915050919050565b60008781526020819052604090206001015487906001600160a01b031633146119a05760405162461bcd60e51b815260040161068b9061329b565b876000811180156119b2575060055481105b6119ce5760405162461bcd60e51b815260040161068b906132c7565b6000898152602081905260409020600281016119ea8a82613456565b50600381016119f98982613456565b5060048101611a088882613456565b508551611a1e90600583019060208901906129d7565b50600681018590556007810184905560405133908b907f885782b6fe94c078f3ed4cb815a599a818040cc046f696e901a6b03df8dc917a90600090a350505050505050505050565b600085600081118015611a7a575060055481105b611a965760405162461bcd60e51b815260040161068b906132c7565b611aa3878787878761223e565b611ab087878787876127eb565b979650505050505050565b60008181526020819052604090206001015481906001600160a01b03163314611af65760405162461bcd60e51b815260040161068b9061329b565b81600081118015611b08575060055481105b611b245760405162461bcd60e51b815260040161068b906132c7565b600083815260208190526040808220600801805460ff1916905551339185917ff39d3b59eafc983e858c88044c0f5b4dab6f687310c0830e10d96f47c80eb9029190a3505050565b60026020528160005260406000208181548110610d3057600080fd5b60036020528160005260406000208181548110610d3057600080fd5b6001600160a01b03811660009081526002602090815260409182902080548351818402810184019094528084526060939283018282801561073857602002820191906000526020600020908154815260200190600101908083116107245750505050509050919050565b6008546001600160a01b03163314611c5d5760405162461bcd60e51b81526020600482015260126024820152712737ba10383630ba3337b9369037bbb732b960711b604482015260640161068b565b6008546040516370a0823160e01b8152306004820152732cfc85d8e48f8eab294be644d9e25c30308630039163a9059cbb916001600160a01b039091169083906370a0823190602401602060405180830381865afa158015611cc3573d6000803e3d6000fd5b505050506040513d601f19601f82011682018060405250810190611ce79190613529565b6040516001600160e01b031960e085901b1681526001600160a01b03909216600483015260248201526044016020604051808303816000875af1158015611d32573d6000803e3d6000fd5b505050506040513d601f19601f82011682018060405250810190611d56919061332e565b50565b80600081118015611d6b575060065481105b611d875760405162461bcd60e51b815260040161068b906132fe565b60008281526001602081815260408084208084015485529184905290922001546001600160a01b03163314611dce5760405162461bcd60e51b815260040161068b9061329b565b6001600782015460ff166005811115611de957611de9612ba5565b14611e365760405162461bcd60e51b815260206004820152601860248201527f426f6f6b696e67206973206e6f7420636f6e6669726d65640000000000000000604482015260640161068b565b8060030154421015611e8a5760405162461bcd60e51b815260206004820152601960248201527f436865636b2d696e2064617465206e6f74207265616368656400000000000000604482015260640161068b565b80600401544210611edd5760405162461bcd60e51b815260206004820152601760248201527f436865636b2d696e20706572696f642065787069726564000000000000000000604482015260640161068b565b60078101805460ff19166002179055604051339084907f5e42971520ac5b55903a6a76991c3b47d3bcbb3d282d36704c4f69a5658da99e90600090a3505050565b60006020819052908152604090208054600182015460028301805492936001600160a01b0390921692611f50906133b8565b80601f0160208091040260200160405190810160405280929190818152602001828054611f7c906133b8565b8015611fc95780601f10611f9e57610100808354040283529160200191611fc9565b820191906000526020600020905b815481529060010190602001808311611fac57829003601f168201915b505050505090806003018054611fde906133b8565b80601f016020809104026020016040519081016040528092919081815260200182805461200a906133b8565b80156120575780601f1061202c57610100808354040283529160200191612057565b820191906000526020600020905b81548152906001019060200180831161203a57829003601f168201915b50505050509080600401805461206c906133b8565b80601f0160208091040260200160405190810160405280929190818152602001828054612098906133b8565b80156120e55780601f106120ba576101008083540402835291602001916120e5565b820191906000526020600020905b8154815290600101906020018083116120c857829003601f168201915b5050506006840154600785015460088601546009909601549495919490935060ff909116915089565b600081815260016020818152604080842081516101208101835281548152938101549284019290925260028201546001600160a01b031690830152600381015460608301526004810154608083015260058082015460a0840152600682015460c084015260078201548493929160e084019160ff169081111561219357612193612ba5565b60058111156121a4576121a4612ba5565b8152602001600882015481525050905060004282606001516121c691906133a5565b905062093a808111156121f85760648260a00151605a6121e69190613366565b6121f09190613383565b949350505050565b6203f4808111156122165760648260a0015160326121e69190613366565b620151808111156122345760648260a0015160196121e69190613366565b5060009392505050565b6000858152602081815260408083208151610140810183528154815260018201546001600160a01b0316938101939093526002810180549192840191612283906133b8565b80601f01602080910402602001604051908101604052809291908181526020018280546122af906133b8565b80156122fc5780601f106122d1576101008083540402835291602001916122fc565b820191906000526020600020905b8154815290600101906020018083116122df57829003601f168201915b50505050508152602001600382018054612315906133b8565b80601f0160208091040260200160405190810160405280929190818152602001828054612341906133b8565b801561238e5780601f106123635761010080835404028352916020019161238e565b820191906000526020600020905b81548152906001019060200180831161237157829003601f168201915b505050505081526020016004820180546123a7906133b8565b80601f01602080910402602001604051908101604052809291908181526020018280546123d3906133b8565b80156124205780601f106123f557610100808354040283529160200191612420565b820191906000526020600020905b81548152906001019060200180831161240357829003601f168201915b5050505050815260200160058201805480602002602001604051908101604052809291908181526020016000905b828210156124fa57838290600052602060002001805461246d906133b8565b80601f0160208091040260200160405190810160405280929190818152602001828054612499906133b8565b80156124e65780601f106124bb576101008083540402835291602001916124e6565b820191906000526020600020905b8154815290600101906020018083116124c957829003601f168201915b50505050508152602001906001019061244e565b505050908252506006820154602082015260078201546040820152600882015460ff161515606082015260099091015460809091015261010081015190915061257e5760405162461bcd60e51b815260206004820152601660248201527550726f7065727479206973206e6f742061637469766560501b604482015260640161068b565b336001600160a01b031681602001516001600160a01b0316036125e35760405162461bcd60e51b815260206004820152601d60248201527f43616e6e6f7420626f6f6b20796f7572206f776e2070726f7065727479000000604482015260640161068b565b42851161263e5760405162461bcd60e51b815260206004820152602360248201527f436865636b2d696e2064617465206d75737420626520696e207468652066757460448201526275726560e81b606482015260840161068b565b8484116126a05760405162461bcd60e51b815260206004820152602a60248201527f436865636b2d6f75742064617465206d75737420626520616674657220636865604482015269636b2d696e206461746560b01b606482015260840161068b565b6000831180156126b457508060e001518311155b6126f65760405162461bcd60e51b8152602060048201526013602482015272125b9d985b1a590819dd595cdd0818dbdd5b9d606a1b604482015260640161068b565b6127018686866104a1565b156127615760405162461bcd60e51b815260206004820152602a60248201527f50726f706572747920697320616c726561647920626f6f6b656420666f7220746044820152696865736520646174657360b01b606482015260840161068b565b60006201518061277187876133a5565b61277b9190613383565b90506000818360c0015161278f9190613366565b9050808410156127e15760405162461bcd60e51b815260206004820152601b60248201527f496e73756666696369656e74207061796d656e7420616d6f756e740000000000604482015260640161068b565b5050505050505050565b600680546000918190836127fe836133ec565b9190505550604051806101200160405280828152602001888152602001336001600160a01b031681526020018781526020018681526020018481526020018581526020016000600581111561285557612855612ba5565b81524260209182015260008381526001808352604091829020845181559284015183820155908301516002830180546001600160a01b0319166001600160a01b03909216919091179055606083015160038301556080830151600483015560a083015160058084019190915560c0840151600684015560e08401516007840180549193909260ff199092169184908111156128f2576128f2612ba5565b02179055506101009190910151600890910155336000818152600360209081526040808320805460018181018355918552838520018690558b84526004835281842080549182018155845291832090910184905551899184917f63b2ee9406f5b4de2520627b528758c36b93081ec000b0579013c887b40b45629190a49695505050505050565b6040518061014001604052806000815260200160006001600160a01b03168152602001606081526020016060815260200160608152602001606081526020016000815260200160008152602001600015158152602001600081525090565b828054828255906000526020600020908101928215612a1d579160200282015b82811115612a1d5782518290612a0d9082613456565b50916020019190600101906129f7565b50612a29929150612a93565b5090565b604051806101200160405280600081526020016000815260200160006001600160a01b031681526020016000815260200160008152602001600081526020016000815260200160006005811115612a8657612a86612ba5565b8152602001600081525090565b80821115612a29576000612aa78282612ab0565b50600101612a93565b508054612abc906133b8565b6000825580601f10612acc575050565b601f016020900490600052602060002090810190611d5691905b80821115612a295760008155600101612ae6565b600080600060608486031215612b0f57600080fd5b505081359360208301359350604090920135919050565b600060208284031215612b3857600080fd5b5035919050565b6020808252825182820181905260009190848201906040850190845b81811015612b7757835183529284019291840191600101612b5b565b50909695505050505050565b60008060408385031215612b9657600080fd5b50508035926020909101359150565b634e487b7160e01b600052602160045260246000fd5b60068110612bd957634e487b7160e01b600052602160045260246000fd5b9052565b898152602081018990526001600160a01b0388166040820152606081018790526080810186905260a0810185905260c081018490526101208101612c2460e0830185612bbb565b826101008301529a9950505050505050505050565b6000815180845260005b81811015612c5f57602081850181015186830182015201612c43565b506000602082860101526020601f19601f83011685010191505092915050565b60008282518085526020808601955060208260051b8401016020860160005b84811015612ccc57601f19868403018952612cba838351612c39565b98840198925090830190600101612c9e565b5090979650505050505050565b6000610140825184526020830151612cfc60208601826001600160a01b03169052565b506040830151816040860152612d1482860182612c39565b91505060608301518482036060860152612d2e8282612c39565b91505060808301518482036080860152612d488282612c39565b91505060a083015184820360a0860152612d628282612c7f565b91505060c083015160c085015260e083015160e085015261010080840151612d8d8287018215159052565b5050610120928301519390920192909252919050565b6020815260006106496020830184612cd9565b634e487b7160e01b600052604160045260246000fd5b604051601f8201601f1916810167ffffffffffffffff81118282101715612df557612df5612db6565b604052919050565b600082601f830112612e0e57600080fd5b813567ffffffffffffffff811115612e2857612e28612db6565b612e3b601f8201601f1916602001612dcc565b818152846020838601011115612e5057600080fd5b816020850160208301376000918101602001919091529392505050565b600082601f830112612e7e57600080fd5b8135602067ffffffffffffffff80831115612e9b57612e9b612db6565b8260051b612eaa838201612dcc565b9384528581018301938381019088861115612ec457600080fd5b84880192505b85831015612f0057823584811115612ee25760008081fd5b612ef08a87838c0101612dfd565b8352509184019190840190612eca565b98975050505050505050565b60008060008060008060c08789031215612f2557600080fd5b863567ffffffffffffffff80821115612f3d57600080fd5b612f498a838b01612dfd565b97506020890135915080821115612f5f57600080fd5b612f6b8a838b01612dfd565b96506040890135915080821115612f8157600080fd5b612f8d8a838b01612dfd565b95506060890135915080821115612fa357600080fd5b50612fb089828a01612e6d565b9350506080870135915060a087013590509295509295509295565b80356001600160a01b0381168114612fe257600080fd5b919050565b600060208284031215612ff957600080fd5b61064982612fcb565b600060208083016020845280855180835260408601915060408160051b87010192506020870160005b8281101561305957603f19888603018452613047858351612cd9565b9450928501929085019060010161302b565b5092979650505050505050565b600061012082019050825182526020830151602083015260018060a01b036040840151166040830152606083015160608301526080830151608083015260a083015160a083015260c083015160c083015260e08301516130c960e0840182612bbb565b5061010092830151919092015290565b600080600080600080600060e0888a0312156130f457600080fd5b87359650602088013567ffffffffffffffff8082111561311357600080fd5b61311f8b838c01612dfd565b975060408a013591508082111561313557600080fd5b6131418b838c01612dfd565b965060608a013591508082111561315757600080fd5b6131638b838c01612dfd565b955060808a013591508082111561317957600080fd5b506131868a828b01612e6d565b93505060a0880135915060c0880135905092959891949750929550565b600080600080600060a086880312156131bb57600080fd5b505083359560208501359550604085013594606081013594506080013592509050565b600080604083850312156131f157600080fd5b6131fa83612fcb565b946020939093013593505050565b8981526001600160a01b0389166020820152610120604082018190526000906132338382018b612c39565b90508281036060840152613247818a612c39565b9050828103608084015261325b8189612c39565b60a0840197909752505060c081019390935290151560e08301526101009091015295945050505050565b634e487b7160e01b600052603260045260246000fd5b6020808252601290820152712737ba10383937b832b93a3c9037bbb732b960711b604082015260600190565b60208082526017908201527f50726f706572747920646f6573206e6f74206578697374000000000000000000604082015260600190565b602080825260169082015275109bdbdada5b99c8191bd95cc81b9bdd08195e1a5cdd60521b604082015260600190565b60006020828403121561334057600080fd5b8151801515811461064957600080fd5b634e487b7160e01b600052601160045260246000fd5b808202811582820484141761337d5761337d613350565b92915050565b6000826133a057634e487b7160e01b600052601260045260246000fd5b500490565b8181038181111561337d5761337d613350565b600181811c908216806133cc57607f821691505b60208210810361107457634e487b7160e01b600052602260045260246000fd5b6000600182016133fe576133fe613350565b5060010190565b601f821115613451576000816000526020600020601f850160051c8101602086101561342e5750805b601f850160051c820191505b8181101561344d5782815560010161343a565b5050505b505050565b815167ffffffffffffffff81111561347057613470612db6565b6134848161347e84546133b8565b84613405565b602080601f8311600181146134b957600084156134a15750858301515b600019600386901b1c1916600185901b17855561344d565b600085815260208120601f198616915b828110156134e8578886015182559484019460019091019084016134c9565b50858210156135065787850151600019600388901b60f8161c191681555b5050505050600190811b01905550565b6020815260006106496020830184612c39565b60006020828403121561353b57600080fd5b505191905056fea2646970667358221220a0e0b6259cff45829b8824b37cd7b3cbd17e1b987b8161ba10e8a5eca12abc4064736f6c63430008160033",
  "linkReferences": {},
  "deployedLinkReferences": {}
}