{
  "_format": "hh-sol-artifact-1",
  "contractName": "HotelBooking",
  "sourceName": "contracts/HotelBooking.sol",
  "abi": [
    {
      "inputs": [],
      "stateMutability": "nonpayable",
      "type": "constructor"
    },
    {
      "anonymous": false,
      "inputs": [
        {
          "indexed": true,
          "internalType": "uint256",
          "name": "bookingId",
          "type": "uint256"
        },
        {
          "indexed": true,
          "internalType": "address",
          "name": "guest",
          "type": "address"
        }
      ],
      "name": "BookingCancelled",
      "type": "event"
    },
    {
      "anonymous": false,
      "inputs": [
        {
          "indexed": true,
          "internalType": "uint256",
          "name": "bookingId",
          "type": "uint256"
        },
        {
          "indexed": true,
          "internalType": "address",
          "name": "propertyOwner",
          "type": "address"
        }
      ],
      "name": "BookingCheckedIn",
      "type": "event"
    },
    {
      "anonymous": false,
      "inputs": [
        {
          "indexed": true,
          "internalType": "uint256",
          "name": "bookingId",
          "type": "uint256"
        },
        {
          "indexed": true,
          "internalType": "address",
          "name": "propertyOwner",
          "type": "address"
        }
      ],
      "name": "BookingCheckedOut",
      "type": "event"
    },
    {
      "anonymous": false,
      "inputs": [
        {
          "indexed": true,
          "internalType": "uint256",
          "name": "bookingId",
          "type": "uint256"
        },
        {
          "indexed": true,
          "internalType": "address",
          "name": "propertyOwner",
          "type": "address"
        }
      ],
      "name": "BookingConfirmed",
      "type": "event"
    },
    {
      "anonymous": false,
      "inputs": [
        {
          "indexed": true,
          "internalType": "uint256",
          "name": "bookingId",
          "type": "uint256"
        },
        {
          "indexed": true,
          "internalType": "uint256",
          "name": "propertyId",
          "type": "uint256"
        },
        {
          "indexed": true,
          "internalType": "address",
          "name": "guest",
          "type": "address"
        }
      ],
      "name": "BookingCreated",
      "type": "event"
    },
    {
      "anonymous": false,
      "inputs": [
        {
          "indexed": true,
          "internalType": "uint256",
          "name": "bookingId",
          "type": "uint256"
        },
        {
          "indexed": true,
          "internalType": "address",
          "name": "propertyOwner",
          "type": "address"
        },
        {
          "indexed": false,
          "internalType": "uint256",
          "name": "amount",
          "type": "uint256"
        }
      ],
      "name": "PaymentReleased",
      "type": "event"
    },
    {
      "anonymous": false,
      "inputs": [
        {
          "indexed": true,
          "internalType": "uint256",
          "name": "propertyId",
          "type": "uint256"
        },
        {
          "indexed": true,
          "internalType": "address",
          "name": "owner",
          "type": "address"
        },
        {
          "indexed": false,
          "internalType": "string",
          "name": "name",
          "type": "string"
        }
      ],
      "name": "PropertyCreated",
      "type": "event"
    },
    {
      "anonymous": false,
      "inputs": [
        {
          "indexed": true,
          "internalType": "uint256",
          "name": "propertyId",
          "type": "uint256"
        },
        {
          "indexed": true,
          "internalType": "address",
          "name": "owner",
          "type": "address"
        }
      ],
      "name": "PropertyDeactivated",
      "type": "event"
    },
    {
      "anonymous": false,
      "inputs": [
        {
          "indexed": true,
          "internalType": "uint256",
          "name": "propertyId",
          "type": "uint256"
        },
        {
          "indexed": true,
          "internalType": "address",
          "name": "owner",
          "type": "address"
        }
      ],
      "name": "PropertyUpdated",
      "type": "event"
    },
    {
      "anonymous": false,
      "inputs": [
        {
          "indexed": true,
          "internalType": "uint256",
          "name": "bookingId",
          "type": "uint256"
        },
        {
          "indexed": true,
          "internalType": "address",
          "name": "guest",
          "type": "address"
        },
        {
          "indexed": false,
          "internalType": "uint256",
          "name": "amount",
          "type": "uint256"
        }
      ],
      "name": "RefundIssued",
      "type": "event"
    },
    {
      "inputs": [],
      "name": "WLD_TOKEN",
      "outputs": [
        {
          "internalType": "contract IERC20",
          "name": "",
          "type": "address"
        }
      ],
      "stateMutability": "view",
      "type": "function"
    },
    {
      "inputs": [
        {
          "internalType": "uint256",
          "name": "propertyId",
          "type": "uint256"
        }
      ],
      "name": "activateProperty",
      "outputs": [],
      "stateMutability": "nonpayable",
      "type": "function"
    },
    {
      "inputs": [
        {
          "internalType": "uint256",
          "name": "",
          "type": "uint256"
        }
      ],
      "name": "bookings",
      "outputs": [
        {
          "internalType": "uint256",
          "name": "id",
          "type": "uint256"
        },
        {
          "internalType": "uint256",
          "name": "propertyId",
          "type": "uint256"
        },
        {
          "internalType": "address",
          "name": "guest",
          "type": "address"
        },
        {
          "internalType": "uint256",
          "name": "checkInDate",
          "type": "uint256"
        },
        {
          "internalType": "uint256",
          "name": "checkOutDate",
          "type": "uint256"
        },
        {
          "internalType": "uint256",
          "name": "totalAmount",
          "type": "uint256"
        },
        {
          "internalType": "uint256",
          "name": "guestCount",
          "type": "uint256"
        },
        {
          "internalType": "enum HotelBooking.BookingStatus",
          "name": "status",
          "type": "uint8"
        },
        {
          "internalType": "uint256",
          "name": "createdAt",
          "type": "uint256"
        }
      ],
      "stateMutability": "view",
      "type": "function"
    },
    {
      "inputs": [
        {
          "internalType": "uint256",
          "name": "bookingId",
          "type": "uint256"
        }
      ],
      "name": "cancelBooking",
      "outputs": [],
      "stateMutability": "nonpayable",
      "type": "function"
    },
    {
      "inputs": [
        {
          "internalType": "uint256",
          "name": "bookingId",
          "type": "uint256"
        }
      ],
      "name": "checkIn",
      "outputs": [],
      "stateMutability": "nonpayable",
      "type": "function"
    },
    {
      "inputs": [
        {
          "internalType": "uint256",
          "name": "bookingId",
          "type": "uint256"
        }
      ],
      "name": "checkOut",
      "outputs": [],
      "stateMutability": "nonpayable",
      "type": "function"
    },
    {
      "inputs": [
        {
          "internalType": "uint256",
          "name": "bookingId",
          "type": "uint256"
        }
      ],
      "name": "confirmBooking",
      "outputs": [],
      "stateMutability": "nonpayable",
      "type": "function"
    },
    {
      "inputs": [
        {
          "internalType": "uint256",
          "name": "propertyId",
          "type": "uint256"
        },
        {
          "internalType": "uint256",
          "name": "checkInDate",
          "type": "uint256"
        },
        {
          "internalType": "uint256",
          "name": "checkOutDate",
          "type": "uint256"
        },
        {
          "internalType": "uint256",
          "name": "guestCount",
          "type": "uint256"
        },
        {
          "internalType": "uint256",
          "name": "totalAmount",
          "type": "uint256"
        }
      ],
      "name": "createBooking",
      "outputs": [
        {
          "internalType": "uint256",
          "name": "",
          "type": "uint256"
        }
      ],
      "stateMutability": "nonpayable",
      "type": "function"
    },
    {
      "inputs": [
        {
          "internalType": "string",
          "name": "name",
          "type": "string"
        },
        {
          "internalType": "string",
          "name": "description",
          "type": "string"
        },
        {
          "internalType": "string",
          "name": "location",
          "type": "string"
        },
        {
          "internalType": "string[]",
          "name": "imageUrls",
          "type": "string[]"
        },
        {
          "internalType": "uint256",
          "name": "pricePerNight",
          "type": "uint256"
        },
        {
          "internalType": "uint256",
          "name": "maxGuests",
          "type": "uint256"
        }
      ],
      "name": "createProperty",
      "outputs": [
        {
          "internalType": "uint256",
          "name": "",
          "type": "uint256"
        }
      ],
      "stateMutability": "nonpayable",
      "type": "function"
    },
    {
      "inputs": [
        {
          "internalType": "uint256",
          "name": "propertyId",
          "type": "uint256"
        }
      ],
      "name": "deactivateProperty",
      "outputs": [],
      "stateMutability": "nonpayable",
      "type": "function"
    },
    {
      "inputs": [],
      "name": "emergencyWithdraw",
      "outputs": [],
      "stateMutability": "nonpayable",
      "type": "function"
    },
    {
      "inputs": [],
      "name": "getAllActiveProperties",
      "outputs": [
        {
          "components": [
            {
              "internalType": "uint256",
              "name": "id",
              "type": "uint256"
            },
            {
              "internalType": "address",
              "name": "owner",
              "type": "address"
            },
            {
              "internalType": "string",
              "name": "name",
              "type": "string"
            },
            {
              "internalType": "string",
              "name": "description",
              "type": "string"
            },
            {
              "internalType": "string",
              "name": "location",
              "type": "string"
            },
            {
              "internalType": "string[]",
              "name": "imageUrls",
              "type": "string[]"
            },
            {
              "internalType": "uint256",
              "name": "pricePerNight",
              "type": "uint256"
            },
            {
              "internalType": "uint256",
              "name": "maxGuests",
              "type": "uint256"
            },
            {
              "internalType": "bool",
              "name": "isActive",
              "type": "bool"
            },
            {
              "internalType": "uint256",
              "name": "createdAt",
              "type": "uint256"
            }
          ],
          "internalType": "struct HotelBooking.Property[]",
          "name": "",
          "type": "tuple[]"
        }
      ],
      "stateMutability": "view",
      "type": "function"
    },
    {
      "inputs": [
        {
          "internalType": "uint256",
          "name": "bookingId",
          "type": "uint256"
        }
      ],
      "name": "getBooking",
      "outputs": [
        {
          "components": [
            {
              "internalType": "uint256",
              "name": "id",
              "type": "uint256"
            },
            {
              "internalType": "uint256",
              "name": "propertyId",
              "type": "uint256"
            },
            {
              "internalType": "address",
              "name": "guest",
              "type": "address"
            },
            {
              "internalType": "uint256",
              "name": "checkInDate",
              "type": "uint256"
            },
            {
              "internalType": "uint256",
              "name": "checkOutDate",
              "type": "uint256"
            },
            {
              "internalType": "uint256",
              "name": "totalAmount",
              "type": "uint256"
            },
            {
              "internalType": "uint256",
              "name": "guestCount",
              "type": "uint256"
            },
            {
              "internalType": "enum HotelBooking.BookingStatus",
              "name": "status",
              "type": "uint8"
            },
            {
              "internalType": "uint256",
              "name": "createdAt",
              "type": "uint256"
            }
          ],
          "internalType": "struct HotelBooking.Booking",
          "name": "",
          "type": "tuple"
        }
      ],
      "stateMutability": "view",
      "type": "function"
    },
    {
      "inputs": [
        {
          "internalType": "address",
          "name": "guest",
          "type": "address"
        }
      ],
      "name": "getGuestBookings",
      "outputs": [
        {
          "internalType": "uint256[]",
          "name": "",
          "type": "uint256[]"
        }
      ],
      "stateMutability": "view",
      "type": "function"
    },
    {
      "inputs": [
        {
          "internalType": "address",
          "name": "owner",
          "type": "address"
        }
      ],
      "name": "getOwnerProperties",
      "outputs": [
        {
          "internalType": "uint256[]",
          "name": "",
          "type": "uint256[]"
        }
      ],
      "stateMutability": "view",
      "type": "function"
    },
    {
      "inputs": [
        {
          "internalType": "uint256",
          "name": "propertyId",
          "type": "uint256"
        }
      ],
      "name": "getProperty",
      "outputs": [
        {
          "components": [
            {
              "internalType": "uint256",
              "name": "id",
              "type": "uint256"
            },
            {
              "internalType": "address",
              "name": "owner",
              "type": "address"
            },
            {
              "internalType": "string",
              "name": "name",
              "type": "string"
            },
            {
              "internalType": "string",
              "name": "description",
              "type": "string"
            },
            {
              "internalType": "string",
              "name": "location",
              "type": "string"
            },
            {
              "internalType": "string[]",
              "name": "imageUrls",
              "type": "string[]"
            },
            {
              "internalType": "uint256",
              "name": "pricePerNight",
              "type": "uint256"
            },
            {
              "internalType": "uint256",
              "name": "maxGuests",
              "type": "uint256"
            },
            {
              "internalType": "bool",
              "name": "isActive",
              "type": "bool"
            },
            {
              "internalType": "uint256",
              "name": "createdAt",
              "type": "uint256"
            }
          ],
          "internalType": "struct HotelBooking.Property",
          "name": "",
          "type": "tuple"
        }
      ],
      "stateMutability": "view",
      "type": "function"
    },
    {
      "inputs": [
        {
          "internalType": "uint256",
          "name": "propertyId",
          "type": "uint256"
        }
      ],
      "name": "getPropertyBookings",
      "outputs": [
        {
          "internalType": "uint256[]",
          "name": "",
          "type": "uint256[]"
        }
      ],
      "stateMutability": "view",
      "type": "function"
    },
    {
      "inputs": [
        {
          "internalType": "address",
          "name": "",
          "type": "address"
        },
        {
          "internalType": "uint256",
          "name": "",
          "type": "uint256"
        }
      ],
      "name": "guestBookings",
      "outputs": [
        {
          "internalType": "uint256",
          "name": "",
          "type": "uint256"
        }
      ],
      "stateMutability": "view",
      "type": "function"
    },
    {
      "inputs": [
        {
          "internalType": "uint256",
          "name": "propertyId",
          "type": "uint256"
        },
        {
          "internalType": "uint256",
          "name": "checkIn",
          "type": "uint256"
        },
        {
          "internalType": "uint256",
          "name": "checkOut",
          "type": "uint256"
        }
      ],
      "name": "isPropertyBooked",
      "outputs": [
        {
          "internalType": "bool",
          "name": "",
          "type": "bool"
        }
      ],
      "stateMutability": "view",
      "type": "function"
    },
    {
      "inputs": [],
      "name": "nextBookingId",
      "outputs": [
        {
          "internalType": "uint256",
          "name": "",
          "type": "uint256"
        }
      ],
      "stateMutability": "view",
      "type": "function"
    },
    {
      "inputs": [],
      "name": "nextPropertyId",
      "outputs": [
        {
          "internalType": "uint256",
          "name": "",
          "type": "uint256"
        }
      ],
      "stateMutability": "view",
      "type": "function"
    },
    {
      "inputs": [
        {
          "internalType": "address",
          "name": "",
          "type": "address"
        },
        {
          "internalType": "uint256",
          "name": "",
          "type": "uint256"
        }
      ],
      "name": "ownerProperties",
      "outputs": [
        {
          "internalType": "uint256",
          "name": "",
          "type": "uint256"
        }
      ],
      "stateMutability": "view",
      "type": "function"
    },
    {
      "inputs": [],
      "name": "platformFeePercentage",
      "outputs": [
        {
          "internalType": "uint256",
          "name": "",
          "type": "uint256"
        }
      ],
      "stateMutability": "view",
      "type": "function"
    },
    {
      "inputs": [],
      "name": "platformOwner",
      "outputs": [
        {
          "internalType": "address",
          "name": "",
          "type": "address"
        }
      ],
      "stateMutability": "view",
      "type": "function"
    },
    {
      "inputs": [
        {
          "internalType": "uint256",
          "name": "",
          "type": "uint256"
        }
      ],
      "name": "properties",
      "outputs": [
        {
          "internalType": "uint256",
          "name": "id",
          "type": "uint256"
        },
        {
          "internalType": "address",
          "name": "owner",
          "type": "address"
        },
        {
          "internalType": "string",
          "name": "name",
          "type": "string"
        },
        {
          "internalType": "string",
          "name": "description",
          "type": "string"
        },
        {
          "internalType": "string",
          "name": "location",
          "type": "string"
        },
        {
          "internalType": "uint256",
          "name": "pricePerNight",
          "type": "uint256"
        },
        {
          "internalType": "uint256",
          "name": "maxGuests",
          "type": "uint256"
        },
        {
          "internalType": "bool",
          "name": "isActive",
          "type": "bool"
        },
        {
          "internalType": "uint256",
          "name": "createdAt",
          "type": "uint256"
        }
      ],
      "stateMutability": "view",
      "type": "function"
    },
    {
      "inputs": [
        {
          "internalType": "uint256",
          "name": "",
          "type": "uint256"
        },
        {
          "internalType": "uint256",
          "name": "",
          "type": "uint256"
        }
      ],
      "name": "propertyBookings",
      "outputs": [
        {
          "internalType": "uint256",
          "name": "",
          "type": "uint256"
        }
      ],
      "stateMutability": "view",
      "type": "function"
    },
    {
      "inputs": [
        {
          "internalType": "uint256",
          "name": "newFeePercentage",
          "type": "uint256"
        }
      ],
      "name": "setPlatformFee",
      "outputs": [],
      "stateMutability": "nonpayable",
      "type": "function"
    },
    {
      "inputs": [
        {
          "internalType": "uint256",
          "name": "propertyId",
          "type": "uint256"
        },
        {
          "internalType": "string",
          "name": "name",
          "type": "string"
        },
        {
          "internalType": "string",
          "name": "description",
          "type": "string"
        },
        {
          "internalType": "string",
          "name": "location",
          "type": "string"
        },
        {
          "internalType": "string[]",
          "name": "imageUrls",
          "type": "string[]"
        },
        {
          "internalType": "uint256",
          "name": "pricePerNight",
          "type": "uint256"
        },
        {
          "internalType": "uint256",
          "name": "maxGuests",
          "type": "uint256"
        }
      ],
      "name": "updateProperty",
      "outputs": [],
      "stateMutability": "nonpayable",
      "type": "function"
    }
  ],
  "bytecode": "0x608060405260016005556001600655600560075534801561001f57600080fd5b50600880546001600160a01b03191633179055613590806100416000396000f3fe608060405234801561001057600080fd5b50600436106101c45760003560e01c806363809aef116100f9578063a41cfa6911610097578063cdd78cfc11610071578063cdd78cfc14610455578063db2e21bc1461045e578063e95a644f14610466578063f7b108081461047957600080fd5b8063a41cfa6914610414578063cb64489714610427578063cdb7354a1461043a57600080fd5b806371c5acdb116100d357806371c5acdb146103c85780637b9afeed146103db5780637ca28bc6146103ee5780638f48bd5b1461040157600080fd5b806363809aef14610380578063659bba9d146103935780636a5c841a146103a857600080fd5b80631dab301e1161016657806339500f341161014057806339500f34146103265780634df8ccb11461032f57806354056b691461035a578063545818a41461036d57600080fd5b80631dab301e1461028057806326f20c79146102fd57806332665ffb1461030657600080fd5b80630dca825e116101a25780630dca825e1461022657806312e8e2c3146102395780631bd2eeee1461024c5780631d5caf271461025f57600080fd5b806301a24285146101c95780630891a48f146101f1578063097b6be314610206575b600080fd5b6101dc6101d7366004612b18565b6104a1565b60405190151581526020015b60405180910390f35b6102046101ff366004612b44565b61065a565b005b610219610214366004612b44565b6106ec565b6040516101e89190612b5d565b610204610234366004612b44565b61074e565b610204610247366004612b44565b6109c8565b61020461025a366004612b44565b610a65565b61027261026d366004612ba1565b610d1e565b6040519081526020016101e8565b6102e861028e366004612b44565b600160208190526000918252604090912080549181015460028201546003830154600484015460058501546006860154600787015460089097015495966001600160a01b0390951695939492939192909160ff9091169089565b6040516101e899989796959493929190612bfb565b61027260065481565b610319610314366004612b44565b610d4f565b6040516101e89190612dbf565b61027260055481565b600854610342906001600160a01b031681565b6040516001600160a01b0390911681526020016101e8565b610204610368366004612b44565b611084565b61027261037b366004612f28565b61119b565b61021961038e366004613003565b611427565b61039b611491565b6040516101e8919061301e565b6103bb6103b6366004612b44565b61189c565b6040516101e89190613080565b6102046103d63660046130f3565b611983565b6102726103e93660046131bd565b611a84565b6102046103fc366004612b44565b611ad9565b61027261040f3660046131f8565b611b8a565b6102726104223660046131f8565b611ba6565b610219610435366004613003565b611bc2565b610342732cfc85d8e48f8eab294be644d9e25c303086300381565b61027260075481565b610204611c2c565b610204610474366004612b44565b611d77565b61048c610487366004612b44565b611f3c565b6040516101e899989796959493929190613222565b6000838152600460209081526040808320805482518185028101850190935280835284938301828280156104f457602002820191906000526020600020905b8154815260200190600101908083116104e0575b5050505050905060005b815181101561064c5760006001600084848151811061051f5761051f61329f565b60209081029190910181015182528181019290925260409081016000208151610120810183528154815260018201549381019390935260028101546001600160a01b031691830191909152600381015460608301526004810154608083015260058082015460a0840152600682015460c0840152600782015460e084019160ff909116908111156105b2576105b2612bc3565b60058111156105c3576105c3612bc3565b815260089190910154602090910152905060018160e0015160058111156105ec576105ec612bc3565b148061060d575060028160e00151600581111561060b5761060b612bc3565b145b1561063957806060015185111580610629575080608001518610155b6106395760019350505050610653565b5080610644816132cb565b9150506104fe565b5060009150505b9392505050565b60008181526020819052604090206001015481906001600160a01b0316331461069e5760405162461bcd60e51b8152600401610695906132e4565b60405180910390fd5b816000811180156106b0575060055481105b6106cc5760405162461bcd60e51b815260040161069590613310565b50506000908152602081905260409020600801805460ff19166001179055565b60008181526004602090815260409182902080548351818402810184019094528084526060939283018282801561074257602002820191906000526020600020905b81548152602001906001019080831161072e575b50505050509050919050565b80600081118015610760575060065481105b61077c5760405162461bcd60e51b815260040161069590613347565b600082815260016020526040902060028101546001600160a01b03163314806107c25750600180820154600090815260208190526040902001546001600160a01b031633145b6107ff5760405162461bcd60e51b815260206004820152600e60248201526d139bdd08185d5d1a1bdc9a5e995960921b6044820152606401610695565b6000600782015460ff16600581111561081a5761081a612bc3565b148061083e57506001600782015460ff16600581111561083c5761083c612bc3565b145b6108825760405162461bcd60e51b815260206004820152601560248201527443616e6e6f742063616e63656c20626f6f6b696e6760581b6044820152606401610695565b60078101805460ff19166004179055600061089c8461212c565b905080156109865760078201805460ff19166005179055600282015460405163a9059cbb60e01b81526001600160a01b03909116600482015260248101829052732cfc85d8e48f8eab294be644d9e25c30308630039063a9059cbb906044016020604051808303816000875af115801561091a573d6000803e3d6000fd5b505050506040513d601f19601f8201168201806040525081019061093e9190613377565b5060028201546040518281526001600160a01b039091169085907f7a482fdeb6bc9a1376f597068a214a7a39472bb2eff1b8cad21ba04f49ddca1b9060200160405180910390a35b60028201546040516001600160a01b039091169085907f405ffc42ca8bb68e3a98a64aa11cec9f085da8d5fab0e36c73abff99bad8cdc990600090a350505050565b6008546001600160a01b03163314610a175760405162461bcd60e51b81526020600482015260126024820152712737ba10383630ba3337b9369037bbb732b960711b6044820152606401610695565b6014811115610a605760405162461bcd60e51b81526020600482015260156024820152744665652063616e6e6f74206578636565642032302560581b6044820152606401610695565b600755565b80600081118015610a77575060065481105b610a935760405162461bcd60e51b815260040161069590613347565b60008281526001602081815260408084208084015485529184905290922001546001600160a01b03163314610ada5760405162461bcd60e51b8152600401610695906132e4565b6002600782015460ff166005811115610af557610af5612bc3565b14610b425760405162461bcd60e51b815260206004820152601860248201527f477565737420686173206e6f7420636865636b656420696e00000000000000006044820152606401610695565b6007818101805460ff19166003179055546005820154600091606491610b689190613399565b610b7291906133b6565b90506000818360050154610b8691906133d8565b6001848101546000908152602081905260409081902090910154905163a9059cbb60e01b81526001600160a01b03909116600482015260248101829052909150732cfc85d8e48f8eab294be644d9e25c30308630039063a9059cbb906044016020604051808303816000875af1158015610c04573d6000803e3d6000fd5b505050506040513d601f19601f82011682018060405250810190610c289190613377565b5060085460405163a9059cbb60e01b81526001600160a01b03909116600482015260248101839052732cfc85d8e48f8eab294be644d9e25c30308630039063a9059cbb906044016020604051808303816000875af1158015610c8e573d6000803e3d6000fd5b505050506040513d601f19601f82011682018060405250810190610cb29190613377565b50604051339086907fd6c7c6e64f2032fbdf5db2b71c7b7d3f9c4f29aeb3806e37ce25f326d52c5e6590600090a3604051818152339086907f21d71db5be59bb9fa133895586b7404307dd33fb93b16db09dc6f1d9d7d231b09060200160405180910390a35050505050565b60046020528160005260406000208181548110610d3a57600080fd5b90600052602060002001600091509150505481565b610d57612997565b81600081118015610d69575060055481105b610d855760405162461bcd60e51b815260040161069590613310565b600083815260208181526040918290208251610140810184528154815260018201546001600160a01b0316928101929092526002810180549293919291840191610dce906133eb565b80601f0160208091040260200160405190810160405280929190818152602001828054610dfa906133eb565b8015610e475780601f10610e1c57610100808354040283529160200191610e47565b820191906000526020600020905b815481529060010190602001808311610e2a57829003601f168201915b50505050508152602001600382018054610e60906133eb565b80601f0160208091040260200160405190810160405280929190818152602001828054610e8c906133eb565b8015610ed95780601f10610eae57610100808354040283529160200191610ed9565b820191906000526020600020905b815481529060010190602001808311610ebc57829003601f168201915b50505050508152602001600482018054610ef2906133eb565b80601f0160208091040260200160405190810160405280929190818152602001828054610f1e906133eb565b8015610f6b5780601f10610f4057610100808354040283529160200191610f6b565b820191906000526020600020905b815481529060010190602001808311610f4e57829003601f168201915b5050505050815260200160058201805480602002602001604051908101604052809291908181526020016000905b82821015611045578382906000526020600020018054610fb8906133eb565b80601f0160208091040260200160405190810160405280929190818152602001828054610fe4906133eb565b80156110315780601f1061100657610100808354040283529160200191611031565b820191906000526020600020905b81548152906001019060200180831161101457829003601f168201915b505050505081526020019060010190610f99565b505050908252506006820154602082015260078201546040820152600882015460ff161515606082015260099091015460809091015291505b50919050565b80600081118015611096575060065481105b6110b25760405162461bcd60e51b815260040161069590613347565b60008281526001602081815260408084208084015485529184905290922001546001600160a01b031633146110f95760405162461bcd60e51b8152600401610695906132e4565b6000600782015460ff16600581111561111457611114612bc3565b1461115a5760405162461bcd60e51b8152602060048201526016602482015275426f6f6b696e67206973206e6f742070656e64696e6760501b6044820152606401610695565b60078101805460ff19166001179055604051339084907f32a6eab1f4a0177609cc24472e391822aae8a497472601ef3f98523b4bc7bd3190600090a3505050565b6000808751116111e45760405162461bcd60e51b81526020600482015260146024820152734e616d652063616e6e6f7420626520656d70747960601b6044820152606401610695565b600083116112345760405162461bcd60e51b815260206004820152601c60248201527f5072696365206d7573742062652067726561746572207468616e2030000000006044820152606401610695565b6000821161128e5760405162461bcd60e51b815260206004820152602160248201527f4d617820677565737473206d7573742062652067726561746572207468616e206044820152600360fc1b6064820152608401610695565b6005805490819060006112a0836132cb565b909155505060408051610140810182528281523360208083019182528284018c8152606084018c9052608084018b905260a084018a905260c0840189905260e0840188905260016101008501819052426101208601526000878152928390529490912083518155915193820180546001600160a01b0319166001600160a01b03909516949094179093559151909190600282019061133e908261346e565b5060608201516003820190611353908261346e565b5060808201516004820190611368908261346e565b5060a082015180516113849160058401916020909101906129f5565b5060c0820151600682015560e0820151600782015561010082015160088201805460ff191691151591909117905561012090910151600990910155336000818152600260209081526040808320805460018101825590845291909220018390555182907fdc1c922a553cc495352bcdbe90335b925277134a1e63f61e7a26e5f414364c3590611414908c9061352e565b60405180910390a3979650505050505050565b6001600160a01b038116600090815260036020908152604091829020805483518184028101840190945280845260609392830182828015610742576020028201919060005260206000209081548152602001906001019080831161072e5750505050509050919050565b6060600060015b6005548110156114dc5760008181526020819052604090206008015460ff16156114ca57816114c6816132cb565b9250505b806114d4816132cb565b915050611498565b5060008167ffffffffffffffff8111156114f8576114f8612dd2565b60405190808252806020026020018201604052801561153157816020015b61151e612997565b8152602001906001900390816115165790505b509050600060015b6005548110156118935760008181526020819052604090206008015460ff161561188157600081815260208181526040918290208251610140810184528154815260018201546001600160a01b03169281019290925260028101805492939192918401916115a6906133eb565b80601f01602080910402602001604051908101604052809291908181526020018280546115d2906133eb565b801561161f5780601f106115f45761010080835404028352916020019161161f565b820191906000526020600020905b81548152906001019060200180831161160257829003601f168201915b50505050508152602001600382018054611638906133eb565b80601f0160208091040260200160405190810160405280929190818152602001828054611664906133eb565b80156116b15780601f10611686576101008083540402835291602001916116b1565b820191906000526020600020905b81548152906001019060200180831161169457829003601f168201915b505050505081526020016004820180546116ca906133eb565b80601f01602080910402602001604051908101604052809291908181526020018280546116f6906133eb565b80156117435780601f1061171857610100808354040283529160200191611743565b820191906000526020600020905b81548152906001019060200180831161172657829003601f168201915b5050505050815260200160058201805480602002602001604051908101604052809291908181526020016000905b8282101561181d578382906000526020600020018054611790906133eb565b80601f01602080910402602001604051908101604052809291908181526020018280546117bc906133eb565b80156118095780601f106117de57610100808354040283529160200191611809565b820191906000526020600020905b8154815290600101906020018083116117ec57829003601f168201915b505050505081526020019060010190611771565b505050908252506006820154602082015260078201546040820152600882015460ff161515606082015260099091015460809091015283518490849081106118675761186761329f565b6020026020010181905250818061187d906132cb565b9250505b8061188b816132cb565b915050611539565b50909392505050565b6118a4612a4b565b816000811180156118b6575060065481105b6118d25760405162461bcd60e51b815260040161069590613347565b60008381526001602081815260409283902083516101208101855281548152928101549183019190915260028101546001600160a01b031692820192909252600382015460608201526004820154608082015260058083015460a0830152600683015460c0830152600783015491929160e084019160ff9091169081111561195c5761195c612bc3565b600581111561196d5761196d612bc3565b8152602001600882015481525050915050919050565b60008781526020819052604090206001015487906001600160a01b031633146119be5760405162461bcd60e51b8152600401610695906132e4565b876000811180156119d0575060055481105b6119ec5760405162461bcd60e51b815260040161069590613310565b600089815260208190526040902060028101611a088a8261346e565b5060038101611a17898261346e565b5060048101611a26888261346e565b508551611a3c90600583019060208901906129f5565b50600681018590556007810184905560405133908b907f885782b6fe94c078f3ed4cb815a599a818040cc046f696e901a6b03df8dc917a90600090a350505050505050505050565b600085600081118015611a98575060055481105b611ab45760405162461bcd60e51b815260040161069590613310565b611ac1878787878761225c565b611ace8787878787612809565b979650505050505050565b60008181526020819052604090206001015481906001600160a01b03163314611b145760405162461bcd60e51b8152600401610695906132e4565b81600081118015611b26575060055481105b611b425760405162461bcd60e51b815260040161069590613310565b600083815260208190526040808220600801805460ff1916905551339185917ff39d3b59eafc983e858c88044c0f5b4dab6f687310c0830e10d96f47c80eb9029190a3505050565b60026020528160005260406000208181548110610d3a57600080fd5b60036020528160005260406000208181548110610d3a57600080fd5b6001600160a01b038116600090815260026020908152604091829020805483518184028101840190945280845260609392830182828015610742576020028201919060005260206000209081548152602001906001019080831161072e5750505050509050919050565b6008546001600160a01b03163314611c7b5760405162461bcd60e51b81526020600482015260126024820152712737ba10383630ba3337b9369037bbb732b960711b6044820152606401610695565b6008546040516370a0823160e01b8152306004820152732cfc85d8e48f8eab294be644d9e25c30308630039163a9059cbb916001600160a01b039091169083906370a0823190602401602060405180830381865afa158015611ce1573d6000803e3d6000fd5b505050506040513d601f19601f82011682018060405250810190611d059190613541565b6040516001600160e01b031960e085901b1681526001600160a01b03909216600483015260248201526044016020604051808303816000875af1158015611d50573d6000803e3d6000fd5b505050506040513d601f19601f82011682018060405250810190611d749190613377565b50565b80600081118015611d89575060065481105b611da55760405162461bcd60e51b815260040161069590613347565b60008281526001602081815260408084208084015485529184905290922001546001600160a01b03163314611dec5760405162461bcd60e51b8152600401610695906132e4565b6001600782015460ff166005811115611e0757611e07612bc3565b14611e545760405162461bcd60e51b815260206004820152601860248201527f426f6f6b696e67206973206e6f7420636f6e6669726d656400000000000000006044820152606401610695565b8060030154421015611ea85760405162461bcd60e51b815260206004820152601960248201527f436865636b2d696e2064617465206e6f742072656163686564000000000000006044820152606401610695565b80600401544210611efb5760405162461bcd60e51b815260206004820152601760248201527f436865636b2d696e20706572696f6420657870697265640000000000000000006044820152606401610695565b60078101805460ff19166002179055604051339084907f5e42971520ac5b55903a6a76991c3b47d3bcbb3d282d36704c4f69a5658da99e90600090a3505050565b60006020819052908152604090208054600182015460028301805492936001600160a01b0390921692611f6e906133eb565b80601f0160208091040260200160405190810160405280929190818152602001828054611f9a906133eb565b8015611fe75780601f10611fbc57610100808354040283529160200191611fe7565b820191906000526020600020905b815481529060010190602001808311611fca57829003601f168201915b505050505090806003018054611ffc906133eb565b80601f0160208091040260200160405190810160405280929190818152602001828054612028906133eb565b80156120755780601f1061204a57610100808354040283529160200191612075565b820191906000526020600020905b81548152906001019060200180831161205857829003601f168201915b50505050509080600401805461208a906133eb565b80601f01602080910402602001604051908101604052809291908181526020018280546120b6906133eb565b80156121035780601f106120d857610100808354040283529160200191612103565b820191906000526020600020905b8154815290600101906020018083116120e657829003601f168201915b5050506006840154600785015460088601546009909601549495919490935060ff909116915089565b600081815260016020818152604080842081516101208101835281548152938101549284019290925260028201546001600160a01b031690830152600381015460608301526004810154608083015260058082015460a0840152600682015460c084015260078201548493929160e084019160ff16908111156121b1576121b1612bc3565b60058111156121c2576121c2612bc3565b8152602001600882015481525050905060004282606001516121e491906133d8565b905062093a808111156122165760648260a00151605a6122049190613399565b61220e91906133b6565b949350505050565b6203f4808111156122345760648260a0015160326122049190613399565b620151808111156122525760648260a0015160196122049190613399565b5060009392505050565b6000858152602081815260408083208151610140810183528154815260018201546001600160a01b03169381019390935260028101805491928401916122a1906133eb565b80601f01602080910402602001604051908101604052809291908181526020018280546122cd906133eb565b801561231a5780601f106122ef5761010080835404028352916020019161231a565b820191906000526020600020905b8154815290600101906020018083116122fd57829003601f168201915b50505050508152602001600382018054612333906133eb565b80601f016020809104026020016040519081016040528092919081815260200182805461235f906133eb565b80156123ac5780601f10612381576101008083540402835291602001916123ac565b820191906000526020600020905b81548152906001019060200180831161238f57829003601f168201915b505050505081526020016004820180546123c5906133eb565b80601f01602080910402602001604051908101604052809291908181526020018280546123f1906133eb565b801561243e5780601f106124135761010080835404028352916020019161243e565b820191906000526020600020905b81548152906001019060200180831161242157829003601f168201915b5050505050815260200160058201805480602002602001604051908101604052809291908181526020016000905b8282101561251857838290600052602060002001805461248b906133eb565b80601f01602080910402602001604051908101604052809291908181526020018280546124b7906133eb565b80156125045780601f106124d957610100808354040283529160200191612504565b820191906000526020600020905b8154815290600101906020018083116124e757829003601f168201915b50505050508152602001906001019061246c565b505050908252506006820154602082015260078201546040820152600882015460ff161515606082015260099091015460809091015261010081015190915061259c5760405162461bcd60e51b815260206004820152601660248201527550726f7065727479206973206e6f742061637469766560501b6044820152606401610695565b336001600160a01b031681602001516001600160a01b0316036126015760405162461bcd60e51b815260206004820152601d60248201527f43616e6e6f7420626f6f6b20796f7572206f776e2070726f70657274790000006044820152606401610695565b42851161265c5760405162461bcd60e51b815260206004820152602360248201527f436865636b2d696e2064617465206d75737420626520696e207468652066757460448201526275726560e81b6064820152608401610695565b8484116126be5760405162461bcd60e51b815260206004820152602a60248201527f436865636b2d6f75742064617465206d75737420626520616674657220636865604482015269636b2d696e206461746560b01b6064820152608401610695565b6000831180156126d257508060e001518311155b6127145760405162461bcd60e51b8152602060048201526013602482015272125b9d985b1a590819dd595cdd0818dbdd5b9d606a1b6044820152606401610695565b61271f8686866104a1565b1561277f5760405162461bcd60e51b815260206004820152602a60248201527f50726f706572747920697320616c726561647920626f6f6b656420666f7220746044820152696865736520646174657360b01b6064820152608401610695565b60006201518061278f87876133d8565b61279991906133b6565b90506000818360c001516127ad9190613399565b9050808410156127ff5760405162461bcd60e51b815260206004820152601b60248201527f496e73756666696369656e74207061796d656e7420616d6f756e7400000000006044820152606401610695565b5050505050505050565b6006805460009181908361281c836132cb565b9190505550604051806101200160405280828152602001888152602001336001600160a01b031681526020018781526020018681526020018481526020018581526020016000600581111561287357612873612bc3565b81524260209182015260008381526001808352604091829020845181559284015183820155908301516002830180546001600160a01b0319166001600160a01b03909216919091179055606083015160038301556080830151600483015560a083015160058084019190915560c0840151600684015560e08401516007840180549193909260ff1990921691849081111561291057612910612bc3565b02179055506101009190910151600890910155336000818152600360209081526040808320805460018181018355918552838520018690558b84526004835281842080549182018155845291832090910184905551899184917f63b2ee9406f5b4de2520627b528758c36b93081ec000b0579013c887b40b45629190a49695505050505050565b6040518061014001604052806000815260200160006001600160a01b03168152602001606081526020016060815260200160608152602001606081526020016000815260200160008152602001600015158152602001600081525090565b828054828255906000526020600020908101928215612a3b579160200282015b82811115612a3b5782518290612a2b908261346e565b5091602001919060010190612a15565b50612a47929150612ab1565b5090565b604051806101200160405280600081526020016000815260200160006001600160a01b031681526020016000815260200160008152602001600081526020016000815260200160006005811115612aa457612aa4612bc3565b8152602001600081525090565b80821115612a47576000612ac58282612ace565b50600101612ab1565b508054612ada906133eb565b6000825580601f10612aea575050565b601f016020900490600052602060002090810190611d7491905b80821115612a475760008155600101612b04565b600080600060608486031215612b2d57600080fd5b505081359360208301359350604090920135919050565b600060208284031215612b5657600080fd5b5035919050565b6020808252825182820181905260009190848201906040850190845b81811015612b9557835183529284019291840191600101612b79565b50909695505050505050565b60008060408385031215612bb457600080fd5b50508035926020909101359150565b634e487b7160e01b600052602160045260246000fd5b60068110612bf757634e487b7160e01b600052602160045260246000fd5b9052565b898152602081018990526001600160a01b0388166040820152606081018790526080810186905260a0810185905260c081018490526101208101612c4260e0830185612bd9565b826101008301529a9950505050505050505050565b6000815180845260005b81811015612c7d57602081850181015186830182015201612c61565b506000602082860101526020601f19601f83011685010191505092915050565b600082825180855260208086019550808260051b84010181860160005b84811015612ce857601f19868403018952612cd6838351612c57565b98840198925090830190600101612cba565b5090979650505050505050565b6000610140825184526020830151612d1860208601826001600160a01b03169052565b506040830151816040860152612d3082860182612c57565b91505060608301518482036060860152612d4a8282612c57565b91505060808301518482036080860152612d648282612c57565b91505060a083015184820360a0860152612d7e8282612c9d565b91505060c083015160c085015260e083015160e085015261010080840151612da98287018215159052565b5050610120928301519390920192909252919050565b6020815260006106536020830184612cf5565b634e487b7160e01b600052604160045260246000fd5b604051601f8201601f1916810167ffffffffffffffff81118282101715612e1157612e11612dd2565b604052919050565b600082601f830112612e2a57600080fd5b813567ffffffffffffffff811115612e4457612e44612dd2565b612e57601f8201601f1916602001612de8565b818152846020838601011115612e6c57600080fd5b816020850160208301376000918101602001919091529392505050565b600082601f830112612e9a57600080fd5b8135602067ffffffffffffffff80831115612eb757612eb7612dd2565b8260051b612ec6838201612de8565b9384528581018301938381019088861115612ee057600080fd5b84880192505b85831015612f1c57823584811115612efe5760008081fd5b612f0c8a87838c0101612e19565b8352509184019190840190612ee6565b98975050505050505050565b60008060008060008060c08789031215612f4157600080fd5b863567ffffffffffffffff80821115612f5957600080fd5b612f658a838b01612e19565b97506020890135915080821115612f7b57600080fd5b612f878a838b01612e19565b96506040890135915080821115612f9d57600080fd5b612fa98a838b01612e19565b95506060890135915080821115612fbf57600080fd5b50612fcc89828a01612e89565b9350506080870135915060a087013590509295509295509295565b80356001600160a01b0381168114612ffe57600080fd5b919050565b60006020828403121561301557600080fd5b61065382612fe7565b6000602080830181845280855180835260408601915060408160051b870101925083870160005b8281101561307357603f19888603018452613061858351612cf5565b94509285019290850190600101613045565b5092979650505050505050565b600061012082019050825182526020830151602083015260018060a01b036040840151166040830152606083015160608301526080830151608083015260a083015160a083015260c083015160c083015260e08301516130e360e0840182612bd9565b5061010092830151919092015290565b600080600080600080600060e0888a03121561310e57600080fd5b87359650602088013567ffffffffffffffff8082111561312d57600080fd5b6131398b838c01612e19565b975060408a013591508082111561314f57600080fd5b61315b8b838c01612e19565b965060608a013591508082111561317157600080fd5b61317d8b838c01612e19565b955060808a013591508082111561319357600080fd5b506131a08a828b01612e89565b93505060a0880135915060c0880135905092959891949750929550565b600080600080600060a086880312156131d557600080fd5b505083359560208501359550604085013594606081013594506080013592509050565b6000806040838503121561320b57600080fd5b61321483612fe7565b946020939093013593505050565b8981526001600160a01b03891660208201526101206040820181905260009061324d8382018b612c57565b90508281036060840152613261818a612c57565b905082810360808401526132758189612c57565b60a0840197909752505060c081019390935290151560e08301526101009091015295945050505050565b634e487b7160e01b600052603260045260246000fd5b634e487b7160e01b600052601160045260246000fd5b6000600182016132dd576132dd6132b5565b5060010190565b6020808252601290820152712737ba10383937b832b93a3c9037bbb732b960711b604082015260600190565b60208082526017908201527f50726f706572747920646f6573206e6f74206578697374000000000000000000604082015260600190565b602080825260169082015275109bdbdada5b99c8191bd95cc81b9bdd08195e1a5cdd60521b604082015260600190565b60006020828403121561338957600080fd5b8151801515811461065357600080fd5b80820281158282048414176133b0576133b06132b5565b92915050565b6000826133d357634e487b7160e01b600052601260045260246000fd5b500490565b818103818111156133b0576133b06132b5565b600181811c908216806133ff57607f821691505b60208210810361107e57634e487b7160e01b600052602260045260246000fd5b601f82111561346957600081815260208120601f850160051c810160208610156134465750805b601f850160051c820191505b8181101561346557828155600101613452565b5050505b505050565b815167ffffffffffffffff81111561348857613488612dd2565b61349c8161349684546133eb565b8461341f565b602080601f8311600181146134d157600084156134b95750858301515b600019600386901b1c1916600185901b178555613465565b600085815260208120601f198616915b82811015613500578886015182559484019460019091019084016134e1565b508582101561351e5787850151600019600388901b60f8161c191681555b5050505050600190811b01905550565b6020815260006106536020830184612c57565b60006020828403121561355357600080fd5b505191905056fea2646970667358221220cd9ab26e3d10d35a49d4a8c4e986a4ec75be6191a773c1e76c54fc2f60a1e3ca64736f6c63430008130033",
  "linkReferences": {},
  "deployedLinkReferences": {}
}