{
  "_format": "hh-sol-artifact-1",
  "contractName": "HotelBooking",
  "sourceName": "contracts/HotelBooking.sol",
  "abi": [
    {
      "inputs": [],
      "stateMutability": "nonpayable",
      "type": "constructor"
    },
    {
      "anonymous": false,
      "inputs": [
        {
          "indexed": true,
          "internalType": "uint256",
          "name": "bookingId",
          "type": "uint256"
        },
        {
          "indexed": true,
          "internalType": "address",
          "name": "guest",
          "type": "address"
        }
      ],
      "name": "BookingCancelled",
      "type": "event"
    },
    {
      "anonymous": false,
      "inputs": [
        {
          "indexed": true,
          "internalType": "uint256",
          "name": "bookingId",
          "type": "uint256"
        },
        {
          "indexed": true,
          "internalType": "address",
          "name": "propertyOwner",
          "type": "address"
        }
      ],
      "name": "BookingCheckedIn",
      "type": "event"
    },
    {
      "anonymous": false,
      "inputs": [
        {
          "indexed": true,
          "internalType": "uint256",
          "name": "bookingId",
          "type": "uint256"
        },
        {
          "indexed": true,
          "internalType": "address",
          "name": "propertyOwner",
          "type": "address"
        }
      ],
      "name": "BookingCheckedOut",
      "type": "event"
    },
    {
      "anonymous": false,
      "inputs": [
        {
          "indexed": true,
          "internalType": "uint256",
          "name": "bookingId",
          "type": "uint256"
        },
        {
          "indexed": true,
          "internalType": "address",
          "name": "propertyOwner",
          "type": "address"
        }
      ],
      "name": "BookingConfirmed",
      "type": "event"
    },
    {
      "anonymous": false,
      "inputs": [
        {
          "indexed": true,
          "internalType": "uint256",
          "name": "bookingId",
          "type": "uint256"
        },
        {
          "indexed": true,
          "internalType": "uint256",
          "name": "propertyId",
          "type": "uint256"
        },
        {
          "indexed": true,
          "internalType": "address",
          "name": "guest",
          "type": "address"
        }
      ],
      "name": "BookingCreated",
      "type": "event"
    },
    {
      "anonymous": false,
      "inputs": [
        {
          "indexed": true,
          "internalType": "uint256",
          "name": "bookingId",
          "type": "uint256"
        },
        {
          "indexed": true,
          "internalType": "address",
          "name": "propertyOwner",
          "type": "address"
        },
        {
          "indexed": false,
          "internalType": "uint256",
          "name": "amount",
          "type": "uint256"
        }
      ],
      "name": "PaymentReleased",
      "type": "event"
    },
    {
      "anonymous": false,
      "inputs": [
        {
          "indexed": true,
          "internalType": "uint256",
          "name": "propertyId",
          "type": "uint256"
        },
        {
          "indexed": true,
          "internalType": "address",
          "name": "owner",
          "type": "address"
        },
        {
          "indexed": false,
          "internalType": "string",
          "name": "name",
          "type": "string"
        }
      ],
      "name": "PropertyCreated",
      "type": "event"
    },
    {
      "anonymous": false,
      "inputs": [
        {
          "indexed": true,
          "internalType": "uint256",
          "name": "propertyId",
          "type": "uint256"
        },
        {
          "indexed": true,
          "internalType": "address",
          "name": "owner",
          "type": "address"
        }
      ],
      "name": "PropertyDeactivated",
      "type": "event"
    },
    {
      "anonymous": false,
      "inputs": [
        {
          "indexed": true,
          "internalType": "uint256",
          "name": "propertyId",
          "type": "uint256"
        },
        {
          "indexed": true,
          "internalType": "address",
          "name": "owner",
          "type": "address"
        }
      ],
      "name": "PropertyUpdated",
      "type": "event"
    },
    {
      "anonymous": false,
      "inputs": [
        {
          "indexed": true,
          "internalType": "uint256",
          "name": "bookingId",
          "type": "uint256"
        },
        {
          "indexed": true,
          "internalType": "address",
          "name": "guest",
          "type": "address"
        },
        {
          "indexed": false,
          "internalType": "uint256",
          "name": "amount",
          "type": "uint256"
        }
      ],
      "name": "RefundIssued",
      "type": "event"
    },
    {
      "inputs": [
        {
          "internalType": "uint256",
          "name": "propertyId",
          "type": "uint256"
        }
      ],
      "name": "activateProperty",
      "outputs": [],
      "stateMutability": "nonpayable",
      "type": "function"
    },
    {
      "inputs": [
        {
          "internalType": "uint256",
          "name": "",
          "type": "uint256"
        }
      ],
      "name": "bookings",
      "outputs": [
        {
          "internalType": "uint256",
          "name": "id",
          "type": "uint256"
        },
        {
          "internalType": "uint256",
          "name": "propertyId",
          "type": "uint256"
        },
        {
          "internalType": "address",
          "name": "guest",
          "type": "address"
        },
        {
          "internalType": "uint256",
          "name": "checkInDate",
          "type": "uint256"
        },
        {
          "internalType": "uint256",
          "name": "checkOutDate",
          "type": "uint256"
        },
        {
          "internalType": "uint256",
          "name": "totalAmount",
          "type": "uint256"
        },
        {
          "internalType": "uint256",
          "name": "guestCount",
          "type": "uint256"
        },
        {
          "internalType": "enum HotelBooking.BookingStatus",
          "name": "status",
          "type": "uint8"
        },
        {
          "internalType": "uint256",
          "name": "createdAt",
          "type": "uint256"
        }
      ],
      "stateMutability": "view",
      "type": "function"
    },
    {
      "inputs": [
        {
          "internalType": "uint256",
          "name": "bookingId",
          "type": "uint256"
        }
      ],
      "name": "cancelBooking",
      "outputs": [],
      "stateMutability": "nonpayable",
      "type": "function"
    },
    {
      "inputs": [
        {
          "internalType": "uint256",
          "name": "bookingId",
          "type": "uint256"
        }
      ],
      "name": "checkIn",
      "outputs": [],
      "stateMutability": "nonpayable",
      "type": "function"
    },
    {
      "inputs": [
        {
          "internalType": "uint256",
          "name": "bookingId",
          "type": "uint256"
        }
      ],
      "name": "checkOut",
      "outputs": [],
      "stateMutability": "nonpayable",
      "type": "function"
    },
    {
      "inputs": [
        {
          "internalType": "uint256",
          "name": "bookingId",
          "type": "uint256"
        }
      ],
      "name": "confirmBooking",
      "outputs": [],
      "stateMutability": "nonpayable",
      "type": "function"
    },
    {
      "inputs": [
        {
          "internalType": "uint256",
          "name": "propertyId",
          "type": "uint256"
        },
        {
          "internalType": "uint256",
          "name": "checkInDate",
          "type": "uint256"
        },
        {
          "internalType": "uint256",
          "name": "checkOutDate",
          "type": "uint256"
        },
        {
          "internalType": "uint256",
          "name": "guestCount",
          "type": "uint256"
        }
      ],
      "name": "createBooking",
      "outputs": [
        {
          "internalType": "uint256",
          "name": "",
          "type": "uint256"
        }
      ],
      "stateMutability": "payable",
      "type": "function"
    },
    {
      "inputs": [
        {
          "internalType": "string",
          "name": "name",
          "type": "string"
        },
        {
          "internalType": "string",
          "name": "description",
          "type": "string"
        },
        {
          "internalType": "string",
          "name": "location",
          "type": "string"
        },
        {
          "internalType": "string[]",
          "name": "imageUrls",
          "type": "string[]"
        },
        {
          "internalType": "uint256",
          "name": "pricePerNight",
          "type": "uint256"
        },
        {
          "internalType": "uint256",
          "name": "maxGuests",
          "type": "uint256"
        }
      ],
      "name": "createProperty",
      "outputs": [
        {
          "internalType": "uint256",
          "name": "",
          "type": "uint256"
        }
      ],
      "stateMutability": "nonpayable",
      "type": "function"
    },
    {
      "inputs": [
        {
          "internalType": "uint256",
          "name": "propertyId",
          "type": "uint256"
        }
      ],
      "name": "deactivateProperty",
      "outputs": [],
      "stateMutability": "nonpayable",
      "type": "function"
    },
    {
      "inputs": [],
      "name": "emergencyWithdraw",
      "outputs": [],
      "stateMutability": "nonpayable",
      "type": "function"
    },
    {
      "inputs": [],
      "name": "getAllActiveProperties",
      "outputs": [
        {
          "components": [
            {
              "internalType": "uint256",
              "name": "id",
              "type": "uint256"
            },
            {
              "internalType": "address",
              "name": "owner",
              "type": "address"
            },
            {
              "internalType": "string",
              "name": "name",
              "type": "string"
            },
            {
              "internalType": "string",
              "name": "description",
              "type": "string"
            },
            {
              "internalType": "string",
              "name": "location",
              "type": "string"
            },
            {
              "internalType": "string[]",
              "name": "imageUrls",
              "type": "string[]"
            },
            {
              "internalType": "uint256",
              "name": "pricePerNight",
              "type": "uint256"
            },
            {
              "internalType": "uint256",
              "name": "maxGuests",
              "type": "uint256"
            },
            {
              "internalType": "bool",
              "name": "isActive",
              "type": "bool"
            },
            {
              "internalType": "uint256",
              "name": "createdAt",
              "type": "uint256"
            }
          ],
          "internalType": "struct HotelBooking.Property[]",
          "name": "",
          "type": "tuple[]"
        }
      ],
      "stateMutability": "view",
      "type": "function"
    },
    {
      "inputs": [
        {
          "internalType": "uint256",
          "name": "bookingId",
          "type": "uint256"
        }
      ],
      "name": "getBooking",
      "outputs": [
        {
          "components": [
            {
              "internalType": "uint256",
              "name": "id",
              "type": "uint256"
            },
            {
              "internalType": "uint256",
              "name": "propertyId",
              "type": "uint256"
            },
            {
              "internalType": "address",
              "name": "guest",
              "type": "address"
            },
            {
              "internalType": "uint256",
              "name": "checkInDate",
              "type": "uint256"
            },
            {
              "internalType": "uint256",
              "name": "checkOutDate",
              "type": "uint256"
            },
            {
              "internalType": "uint256",
              "name": "totalAmount",
              "type": "uint256"
            },
            {
              "internalType": "uint256",
              "name": "guestCount",
              "type": "uint256"
            },
            {
              "internalType": "enum HotelBooking.BookingStatus",
              "name": "status",
              "type": "uint8"
            },
            {
              "internalType": "uint256",
              "name": "createdAt",
              "type": "uint256"
            }
          ],
          "internalType": "struct HotelBooking.Booking",
          "name": "",
          "type": "tuple"
        }
      ],
      "stateMutability": "view",
      "type": "function"
    },
    {
      "inputs": [
        {
          "internalType": "address",
          "name": "guest",
          "type": "address"
        }
      ],
      "name": "getGuestBookings",
      "outputs": [
        {
          "internalType": "uint256[]",
          "name": "",
          "type": "uint256[]"
        }
      ],
      "stateMutability": "view",
      "type": "function"
    },
    {
      "inputs": [
        {
          "internalType": "address",
          "name": "owner",
          "type": "address"
        }
      ],
      "name": "getOwnerProperties",
      "outputs": [
        {
          "internalType": "uint256[]",
          "name": "",
          "type": "uint256[]"
        }
      ],
      "stateMutability": "view",
      "type": "function"
    },
    {
      "inputs": [
        {
          "internalType": "uint256",
          "name": "propertyId",
          "type": "uint256"
        }
      ],
      "name": "getProperty",
      "outputs": [
        {
          "components": [
            {
              "internalType": "uint256",
              "name": "id",
              "type": "uint256"
            },
            {
              "internalType": "address",
              "name": "owner",
              "type": "address"
            },
            {
              "internalType": "string",
              "name": "name",
              "type": "string"
            },
            {
              "internalType": "string",
              "name": "description",
              "type": "string"
            },
            {
              "internalType": "string",
              "name": "location",
              "type": "string"
            },
            {
              "internalType": "string[]",
              "name": "imageUrls",
              "type": "string[]"
            },
            {
              "internalType": "uint256",
              "name": "pricePerNight",
              "type": "uint256"
            },
            {
              "internalType": "uint256",
              "name": "maxGuests",
              "type": "uint256"
            },
            {
              "internalType": "bool",
              "name": "isActive",
              "type": "bool"
            },
            {
              "internalType": "uint256",
              "name": "createdAt",
              "type": "uint256"
            }
          ],
          "internalType": "struct HotelBooking.Property",
          "name": "",
          "type": "tuple"
        }
      ],
      "stateMutability": "view",
      "type": "function"
    },
    {
      "inputs": [
        {
          "internalType": "uint256",
          "name": "propertyId",
          "type": "uint256"
        }
      ],
      "name": "getPropertyBookings",
      "outputs": [
        {
          "internalType": "uint256[]",
          "name": "",
          "type": "uint256[]"
        }
      ],
      "stateMutability": "view",
      "type": "function"
    },
    {
      "inputs": [
        {
          "internalType": "address",
          "name": "",
          "type": "address"
        },
        {
          "internalType": "uint256",
          "name": "",
          "type": "uint256"
        }
      ],
      "name": "guestBookings",
      "outputs": [
        {
          "internalType": "uint256",
          "name": "",
          "type": "uint256"
        }
      ],
      "stateMutability": "view",
      "type": "function"
    },
    {
      "inputs": [
        {
          "internalType": "uint256",
          "name": "propertyId",
          "type": "uint256"
        },
        {
          "internalType": "uint256",
          "name": "checkIn",
          "type": "uint256"
        },
        {
          "internalType": "uint256",
          "name": "checkOut",
          "type": "uint256"
        }
      ],
      "name": "isPropertyBooked",
      "outputs": [
        {
          "internalType": "bool",
          "name": "",
          "type": "bool"
        }
      ],
      "stateMutability": "view",
      "type": "function"
    },
    {
      "inputs": [],
      "name": "nextBookingId",
      "outputs": [
        {
          "internalType": "uint256",
          "name": "",
          "type": "uint256"
        }
      ],
      "stateMutability": "view",
      "type": "function"
    },
    {
      "inputs": [],
      "name": "nextPropertyId",
      "outputs": [
        {
          "internalType": "uint256",
          "name": "",
          "type": "uint256"
        }
      ],
      "stateMutability": "view",
      "type": "function"
    },
    {
      "inputs": [
        {
          "internalType": "address",
          "name": "",
          "type": "address"
        },
        {
          "internalType": "uint256",
          "name": "",
          "type": "uint256"
        }
      ],
      "name": "ownerProperties",
      "outputs": [
        {
          "internalType": "uint256",
          "name": "",
          "type": "uint256"
        }
      ],
      "stateMutability": "view",
      "type": "function"
    },
    {
      "inputs": [],
      "name": "platformFeePercentage",
      "outputs": [
        {
          "internalType": "uint256",
          "name": "",
          "type": "uint256"
        }
      ],
      "stateMutability": "view",
      "type": "function"
    },
    {
      "inputs": [],
      "name": "platformOwner",
      "outputs": [
        {
          "internalType": "address",
          "name": "",
          "type": "address"
        }
      ],
      "stateMutability": "view",
      "type": "function"
    },
    {
      "inputs": [
        {
          "internalType": "uint256",
          "name": "",
          "type": "uint256"
        }
      ],
      "name": "properties",
      "outputs": [
        {
          "internalType": "uint256",
          "name": "id",
          "type": "uint256"
        },
        {
          "internalType": "address",
          "name": "owner",
          "type": "address"
        },
        {
          "internalType": "string",
          "name": "name",
          "type": "string"
        },
        {
          "internalType": "string",
          "name": "description",
          "type": "string"
        },
        {
          "internalType": "string",
          "name": "location",
          "type": "string"
        },
        {
          "internalType": "uint256",
          "name": "pricePerNight",
          "type": "uint256"
        },
        {
          "internalType": "uint256",
          "name": "maxGuests",
          "type": "uint256"
        },
        {
          "internalType": "bool",
          "name": "isActive",
          "type": "bool"
        },
        {
          "internalType": "uint256",
          "name": "createdAt",
          "type": "uint256"
        }
      ],
      "stateMutability": "view",
      "type": "function"
    },
    {
      "inputs": [
        {
          "internalType": "uint256",
          "name": "",
          "type": "uint256"
        },
        {
          "internalType": "uint256",
          "name": "",
          "type": "uint256"
        }
      ],
      "name": "propertyBookings",
      "outputs": [
        {
          "internalType": "uint256",
          "name": "",
          "type": "uint256"
        }
      ],
      "stateMutability": "view",
      "type": "function"
    },
    {
      "inputs": [
        {
          "internalType": "uint256",
          "name": "newFeePercentage",
          "type": "uint256"
        }
      ],
      "name": "setPlatformFee",
      "outputs": [],
      "stateMutability": "nonpayable",
      "type": "function"
    },
    {
      "inputs": [
        {
          "internalType": "uint256",
          "name": "propertyId",
          "type": "uint256"
        },
        {
          "internalType": "string",
          "name": "name",
          "type": "string"
        },
        {
          "internalType": "string",
          "name": "description",
          "type": "string"
        },
        {
          "internalType": "string",
          "name": "location",
          "type": "string"
        },
        {
          "internalType": "string[]",
          "name": "imageUrls",
          "type": "string[]"
        },
        {
          "internalType": "uint256",
          "name": "pricePerNight",
          "type": "uint256"
        },
        {
          "internalType": "uint256",
          "name": "maxGuests",
          "type": "uint256"
        }
      ],
      "name": "updateProperty",
      "outputs": [],
      "stateMutability": "nonpayable",
      "type": "function"
    }
  ],
  "bytecode": "0x608060405260016005556001600655600560075534801561001f57600080fd5b50600880546001600160a01b031916331790556134b9806100416000396000f3fe60806040526004361061019c5760003560e01c8063545818a4116100ec578063a41cfa691161008a578063db2e21bc11610064578063db2e21bc14610533578063e95a644f14610548578063edded82014610568578063f7b108081461057b57600080fd5b8063a41cfa69146104dd578063cb644897146104fd578063cdd78cfc1461051d57600080fd5b80636a5c841a116100c65780636a5c841a1461045057806371c5acdb1461047d5780637ca28bc61461049d5780638f48bd5b146104bd57600080fd5b8063545818a4146103ee57806363809aef1461040e578063659bba9d1461042e57600080fd5b80631d5caf271161015957806332665ffb1161013357806332665ffb1461035357806339500f34146103805780634df8ccb11461039657806354056b69146103ce57600080fd5b80631d5caf27146102855780631dab301e146102b357806326f20c791461033d57600080fd5b806301a24285146101a15780630891a48f146101d6578063097b6be3146101f85780630dca825e1461022557806312e8e2c3146102455780631bd2eeee14610265575b600080fd5b3480156101ad57600080fd5b506101c16101bc366004612a85565b6105b0565b60405190151581526020015b60405180910390f35b3480156101e257600080fd5b506101f66101f1366004612ab1565b610769565b005b34801561020457600080fd5b50610218610213366004612ab1565b6107fb565b6040516101cd9190612aca565b34801561023157600080fd5b506101f6610240366004612ab1565b61085d565b34801561025157600080fd5b506101f6610260366004612ab1565b610a88565b34801561027157600080fd5b506101f6610280366004612ab1565b610b25565b34801561029157600080fd5b506102a56102a0366004612b0e565b610d3e565b6040519081526020016101cd565b3480156102bf57600080fd5b506103286102ce366004612ab1565b600160208190526000918252604090912080549181015460028201546003830154600484015460058501546006860154600787015460089097015495966001600160a01b0390951695939492939192909160ff9091169089565b6040516101cd99989796959493929190612b68565b34801561034957600080fd5b506102a560065481565b34801561035f57600080fd5b5061037361036e366004612ab1565b610d6f565b6040516101cd9190612d2c565b34801561038c57600080fd5b506102a560055481565b3480156103a257600080fd5b506008546103b6906001600160a01b031681565b6040516001600160a01b0390911681526020016101cd565b3480156103da57600080fd5b506101f66103e9366004612ab1565b6110a4565b3480156103fa57600080fd5b506102a5610409366004612e95565b6111bb565b34801561041a57600080fd5b50610218610429366004612f70565b611447565b34801561043a57600080fd5b506104436114b1565b6040516101cd9190612f8b565b34801561045c57600080fd5b5061047061046b366004612ab1565b6118bc565b6040516101cd9190612fed565b34801561048957600080fd5b506101f6610498366004613060565b6119a3565b3480156104a957600080fd5b506101f66104b8366004612ab1565b611aa4565b3480156104c957600080fd5b506102a56104d836600461312a565b611b55565b3480156104e957600080fd5b506102a56104f836600461312a565b611b71565b34801561050957600080fd5b50610218610518366004612f70565b611b8d565b34801561052957600080fd5b506102a560075481565b34801561053f57600080fd5b506101f6611bf7565b34801561055457600080fd5b506101f6610563366004612ab1565b611c82565b6102a5610576366004613154565b611e47565b34801561058757600080fd5b5061059b610596366004612ab1565b6125e4565b6040516101cd99989796959493929190613186565b60008381526004602090815260408083208054825181850281018501909352808352849383018282801561060357602002820191906000526020600020905b8154815260200190600101908083116105ef575b5050505050905060005b815181101561075b5760006001600084848151811061062e5761062e613203565b60209081029190910181015182528181019290925260409081016000208151610120810183528154815260018201549381019390935260028101546001600160a01b031691830191909152600381015460608301526004810154608083015260058082015460a0840152600682015460c0840152600782015460e084019160ff909116908111156106c1576106c1612b30565b60058111156106d2576106d2612b30565b815260089190910154602090910152905060018160e0015160058111156106fb576106fb612b30565b148061071c575060028160e00151600581111561071a5761071a612b30565b145b1561074857806060015185111580610738575080608001518610155b6107485760019350505050610762565b50806107538161322f565b91505061060d565b5060009150505b9392505050565b60008181526020819052604090206001015481906001600160a01b031633146107ad5760405162461bcd60e51b81526004016107a490613248565b60405180910390fd5b816000811180156107bf575060055481105b6107db5760405162461bcd60e51b81526004016107a490613274565b50506000908152602081905260409020600801805460ff19166001179055565b60008181526004602090815260409182902080548351818402810184019094528084526060939283018282801561085157602002820191906000526020600020905b81548152602001906001019080831161083d575b50505050509050919050565b8060008111801561086f575060065481105b61088b5760405162461bcd60e51b81526004016107a4906132ab565b600082815260016020526040902060028101546001600160a01b03163314806108d15750600180820154600090815260208190526040902001546001600160a01b031633145b61090e5760405162461bcd60e51b815260206004820152600e60248201526d139bdd08185d5d1a1bdc9a5e995960921b60448201526064016107a4565b6000600782015460ff16600581111561092957610929612b30565b148061094d57506001600782015460ff16600581111561094b5761094b612b30565b145b6109915760405162461bcd60e51b815260206004820152601560248201527443616e6e6f742063616e63656c20626f6f6b696e6760581b60448201526064016107a4565b60078101805460ff1916600417905560006109ab846127d4565b90508015610a465760078201805460ff1916600517905560028201546040516001600160a01b03909116906108fc8315029083906000818181858888f193505050501580156109fe573d6000803e3d6000fd5b5060028201546040518281526001600160a01b039091169085907f7a482fdeb6bc9a1376f597068a214a7a39472bb2eff1b8cad21ba04f49ddca1b9060200160405180910390a35b60028201546040516001600160a01b039091169085907f405ffc42ca8bb68e3a98a64aa11cec9f085da8d5fab0e36c73abff99bad8cdc990600090a350505050565b6008546001600160a01b03163314610ad75760405162461bcd60e51b81526020600482015260126024820152712737ba10383630ba3337b9369037bbb732b960711b60448201526064016107a4565b6014811115610b205760405162461bcd60e51b81526020600482015260156024820152744665652063616e6e6f74206578636565642032302560581b60448201526064016107a4565b600755565b80600081118015610b37575060065481105b610b535760405162461bcd60e51b81526004016107a4906132ab565b60008281526001602081815260408084208084015485529184905290922001546001600160a01b03163314610b9a5760405162461bcd60e51b81526004016107a490613248565b6002600782015460ff166005811115610bb557610bb5612b30565b14610c025760405162461bcd60e51b815260206004820152601860248201527f477565737420686173206e6f7420636865636b656420696e000000000000000060448201526064016107a4565b6007818101805460ff19166003179055546005820154600091606491610c2891906132db565b610c3291906132f8565b90506000818360050154610c46919061331a565b6001808501546000908152602081905260408082209092015491519293506001600160a01b039091169183156108fc0291849190818181858888f19350505050158015610c97573d6000803e3d6000fd5b506008546040516001600160a01b039091169083156108fc029084906000818181858888f19350505050158015610cd2573d6000803e3d6000fd5b50604051339086907fd6c7c6e64f2032fbdf5db2b71c7b7d3f9c4f29aeb3806e37ce25f326d52c5e6590600090a3604051818152339086907f21d71db5be59bb9fa133895586b7404307dd33fb93b16db09dc6f1d9d7d231b09060200160405180910390a35050505050565b60046020528160005260406000208181548110610d5a57600080fd5b90600052602060002001600091509150505481565b610d77612904565b81600081118015610d89575060055481105b610da55760405162461bcd60e51b81526004016107a490613274565b600083815260208181526040918290208251610140810184528154815260018201546001600160a01b0316928101929092526002810180549293919291840191610dee9061332d565b80601f0160208091040260200160405190810160405280929190818152602001828054610e1a9061332d565b8015610e675780601f10610e3c57610100808354040283529160200191610e67565b820191906000526020600020905b815481529060010190602001808311610e4a57829003601f168201915b50505050508152602001600382018054610e809061332d565b80601f0160208091040260200160405190810160405280929190818152602001828054610eac9061332d565b8015610ef95780601f10610ece57610100808354040283529160200191610ef9565b820191906000526020600020905b815481529060010190602001808311610edc57829003601f168201915b50505050508152602001600482018054610f129061332d565b80601f0160208091040260200160405190810160405280929190818152602001828054610f3e9061332d565b8015610f8b5780601f10610f6057610100808354040283529160200191610f8b565b820191906000526020600020905b815481529060010190602001808311610f6e57829003601f168201915b5050505050815260200160058201805480602002602001604051908101604052809291908181526020016000905b82821015611065578382906000526020600020018054610fd89061332d565b80601f01602080910402602001604051908101604052809291908181526020018280546110049061332d565b80156110515780601f1061102657610100808354040283529160200191611051565b820191906000526020600020905b81548152906001019060200180831161103457829003601f168201915b505050505081526020019060010190610fb9565b505050908252506006820154602082015260078201546040820152600882015460ff161515606082015260099091015460809091015291505b50919050565b806000811180156110b6575060065481105b6110d25760405162461bcd60e51b81526004016107a4906132ab565b60008281526001602081815260408084208084015485529184905290922001546001600160a01b031633146111195760405162461bcd60e51b81526004016107a490613248565b6000600782015460ff16600581111561113457611134612b30565b1461117a5760405162461bcd60e51b8152602060048201526016602482015275426f6f6b696e67206973206e6f742070656e64696e6760501b60448201526064016107a4565b60078101805460ff19166001179055604051339084907f32a6eab1f4a0177609cc24472e391822aae8a497472601ef3f98523b4bc7bd3190600090a3505050565b6000808751116112045760405162461bcd60e51b81526020600482015260146024820152734e616d652063616e6e6f7420626520656d70747960601b60448201526064016107a4565b600083116112545760405162461bcd60e51b815260206004820152601c60248201527f5072696365206d7573742062652067726561746572207468616e20300000000060448201526064016107a4565b600082116112ae5760405162461bcd60e51b815260206004820152602160248201527f4d617820677565737473206d7573742062652067726561746572207468616e206044820152600360fc1b60648201526084016107a4565b6005805490819060006112c08361322f565b909155505060408051610140810182528281523360208083019182528284018c8152606084018c9052608084018b905260a084018a905260c0840189905260e0840188905260016101008501819052426101208601526000878152928390529490912083518155915193820180546001600160a01b0319166001600160a01b03909516949094179093559151909190600282019061135e90826133b0565b506060820151600382019061137390826133b0565b506080820151600482019061138890826133b0565b5060a082015180516113a4916005840191602090910190612962565b5060c0820151600682015560e0820151600782015561010082015160088201805460ff191691151591909117905561012090910151600990910155336000818152600260209081526040808320805460018101825590845291909220018390555182907fdc1c922a553cc495352bcdbe90335b925277134a1e63f61e7a26e5f414364c3590611434908c90613470565b60405180910390a3979650505050505050565b6001600160a01b038116600090815260036020908152604091829020805483518184028101840190945280845260609392830182828015610851576020028201919060005260206000209081548152602001906001019080831161083d5750505050509050919050565b6060600060015b6005548110156114fc5760008181526020819052604090206008015460ff16156114ea57816114e68161322f565b9250505b806114f48161322f565b9150506114b8565b5060008167ffffffffffffffff81111561151857611518612d3f565b60405190808252806020026020018201604052801561155157816020015b61153e612904565b8152602001906001900390816115365790505b509050600060015b6005548110156118b35760008181526020819052604090206008015460ff16156118a157600081815260208181526040918290208251610140810184528154815260018201546001600160a01b03169281019290925260028101805492939192918401916115c69061332d565b80601f01602080910402602001604051908101604052809291908181526020018280546115f29061332d565b801561163f5780601f106116145761010080835404028352916020019161163f565b820191906000526020600020905b81548152906001019060200180831161162257829003601f168201915b505050505081526020016003820180546116589061332d565b80601f01602080910402602001604051908101604052809291908181526020018280546116849061332d565b80156116d15780601f106116a6576101008083540402835291602001916116d1565b820191906000526020600020905b8154815290600101906020018083116116b457829003601f168201915b505050505081526020016004820180546116ea9061332d565b80601f01602080910402602001604051908101604052809291908181526020018280546117169061332d565b80156117635780601f1061173857610100808354040283529160200191611763565b820191906000526020600020905b81548152906001019060200180831161174657829003601f168201915b5050505050815260200160058201805480602002602001604051908101604052809291908181526020016000905b8282101561183d5783829060005260206000200180546117b09061332d565b80601f01602080910402602001604051908101604052809291908181526020018280546117dc9061332d565b80156118295780601f106117fe57610100808354040283529160200191611829565b820191906000526020600020905b81548152906001019060200180831161180c57829003601f168201915b505050505081526020019060010190611791565b505050908252506006820154602082015260078201546040820152600882015460ff1615156060820152600990910154608090910152835184908490811061188757611887613203565b6020026020010181905250818061189d9061322f565b9250505b806118ab8161322f565b915050611559565b50909392505050565b6118c46129b8565b816000811180156118d6575060065481105b6118f25760405162461bcd60e51b81526004016107a4906132ab565b60008381526001602081815260409283902083516101208101855281548152928101549183019190915260028101546001600160a01b031692820192909252600382015460608201526004820154608082015260058083015460a0830152600683015460c0830152600783015491929160e084019160ff9091169081111561197c5761197c612b30565b600581111561198d5761198d612b30565b8152602001600882015481525050915050919050565b60008781526020819052604090206001015487906001600160a01b031633146119de5760405162461bcd60e51b81526004016107a490613248565b876000811180156119f0575060055481105b611a0c5760405162461bcd60e51b81526004016107a490613274565b600089815260208190526040902060028101611a288a826133b0565b5060038101611a3789826133b0565b5060048101611a4688826133b0565b508551611a5c9060058301906020890190612962565b50600681018590556007810184905560405133908b907f885782b6fe94c078f3ed4cb815a599a818040cc046f696e901a6b03df8dc917a90600090a350505050505050505050565b60008181526020819052604090206001015481906001600160a01b03163314611adf5760405162461bcd60e51b81526004016107a490613248565b81600081118015611af1575060055481105b611b0d5760405162461bcd60e51b81526004016107a490613274565b600083815260208190526040808220600801805460ff1916905551339185917ff39d3b59eafc983e858c88044c0f5b4dab6f687310c0830e10d96f47c80eb9029190a3505050565b60026020528160005260406000208181548110610d5a57600080fd5b60036020528160005260406000208181548110610d5a57600080fd5b6001600160a01b038116600090815260026020908152604091829020805483518184028101840190945280845260609392830182828015610851576020028201919060005260206000209081548152602001906001019080831161083d5750505050509050919050565b6008546001600160a01b03163314611c465760405162461bcd60e51b81526020600482015260126024820152712737ba10383630ba3337b9369037bbb732b960711b60448201526064016107a4565b6008546040516001600160a01b03909116904780156108fc02916000818181858888f19350505050158015611c7f573d6000803e3d6000fd5b50565b80600081118015611c94575060065481105b611cb05760405162461bcd60e51b81526004016107a4906132ab565b60008281526001602081815260408084208084015485529184905290922001546001600160a01b03163314611cf75760405162461bcd60e51b81526004016107a490613248565b6001600782015460ff166005811115611d1257611d12612b30565b14611d5f5760405162461bcd60e51b815260206004820152601860248201527f426f6f6b696e67206973206e6f7420636f6e6669726d6564000000000000000060448201526064016107a4565b8060030154421015611db35760405162461bcd60e51b815260206004820152601960248201527f436865636b2d696e2064617465206e6f7420726561636865640000000000000060448201526064016107a4565b80600401544210611e065760405162461bcd60e51b815260206004820152601760248201527f436865636b2d696e20706572696f64206578706972656400000000000000000060448201526064016107a4565b60078101805460ff19166002179055604051339084907f5e42971520ac5b55903a6a76991c3b47d3bcbb3d282d36704c4f69a5658da99e90600090a3505050565b600084600081118015611e5b575060055481105b611e775760405162461bcd60e51b81526004016107a490613274565b6000868152602081815260408083208151610140810183528154815260018201546001600160a01b0316938101939093526002810180549192840191611ebc9061332d565b80601f0160208091040260200160405190810160405280929190818152602001828054611ee89061332d565b8015611f355780601f10611f0a57610100808354040283529160200191611f35565b820191906000526020600020905b815481529060010190602001808311611f1857829003601f168201915b50505050508152602001600382018054611f4e9061332d565b80601f0160208091040260200160405190810160405280929190818152602001828054611f7a9061332d565b8015611fc75780601f10611f9c57610100808354040283529160200191611fc7565b820191906000526020600020905b815481529060010190602001808311611faa57829003601f168201915b50505050508152602001600482018054611fe09061332d565b80601f016020809104026020016040519081016040528092919081815260200182805461200c9061332d565b80156120595780601f1061202e57610100808354040283529160200191612059565b820191906000526020600020905b81548152906001019060200180831161203c57829003601f168201915b5050505050815260200160058201805480602002602001604051908101604052809291908181526020016000905b828210156121335783829060005260206000200180546120a69061332d565b80601f01602080910402602001604051908101604052809291908181526020018280546120d29061332d565b801561211f5780601f106120f45761010080835404028352916020019161211f565b820191906000526020600020905b81548152906001019060200180831161210257829003601f168201915b505050505081526020019060010190612087565b505050908252506006820154602082015260078201546040820152600882015460ff16151560608201526009909101546080909101526101008101519091506121b75760405162461bcd60e51b815260206004820152601660248201527550726f7065727479206973206e6f742061637469766560501b60448201526064016107a4565b336001600160a01b031681602001516001600160a01b03160361221c5760405162461bcd60e51b815260206004820152601d60248201527f43616e6e6f7420626f6f6b20796f7572206f776e2070726f706572747900000060448201526064016107a4565b4286116122775760405162461bcd60e51b815260206004820152602360248201527f436865636b2d696e2064617465206d75737420626520696e207468652066757460448201526275726560e81b60648201526084016107a4565b8585116122d95760405162461bcd60e51b815260206004820152602a60248201527f436865636b2d6f75742064617465206d75737420626520616674657220636865604482015269636b2d696e206461746560b01b60648201526084016107a4565b6000841180156122ed57508060e001518411155b61232f5760405162461bcd60e51b8152602060048201526013602482015272125b9d985b1a590819dd595cdd0818dbdd5b9d606a1b60448201526064016107a4565b61233a8787876105b0565b1561239a5760405162461bcd60e51b815260206004820152602a60248201527f50726f706572747920697320616c726561647920626f6f6b656420666f7220746044820152696865736520646174657360b01b60648201526084016107a4565b6000620151806123aa888861331a565b6123b491906132f8565b90506000818360c001516123c891906132db565b9050803410156124115760405162461bcd60e51b8152602060048201526014602482015273125b9cdd59999a58da595b9d081c185e5b595b9d60621b60448201526064016107a4565b6006805490819060006124238361322f565b91905055506040518061012001604052808281526020018b8152602001336001600160a01b031681526020018a81526020018981526020018381526020018881526020016000600581111561247a5761247a612b30565b81524260209182015260008381526001808352604091829020845181559284015183820155908301516002830180546001600160a01b0319166001600160a01b03909216919091179055606083015160038301556080830151600483015560a083015160058084019190915560c0840151600684015560e08401516007840180549193909260ff1990921691849081111561251757612517612b30565b02179055506101009190910151600890910155336000908152600360209081526040808320805460018181018355918552838520018590558d845260048352908320805491820181558352912001819055348210156125a857336108fc61257e843461331a565b6040518115909202916000818181858888f193505050501580156125a6573d6000803e3d6000fd5b505b60405133908b9083907f63b2ee9406f5b4de2520627b528758c36b93081ec000b0579013c887b40b456290600090a49998505050505050505050565b60006020819052908152604090208054600182015460028301805492936001600160a01b03909216926126169061332d565b80601f01602080910402602001604051908101604052809291908181526020018280546126429061332d565b801561268f5780601f106126645761010080835404028352916020019161268f565b820191906000526020600020905b81548152906001019060200180831161267257829003601f168201915b5050505050908060030180546126a49061332d565b80601f01602080910402602001604051908101604052809291908181526020018280546126d09061332d565b801561271d5780601f106126f25761010080835404028352916020019161271d565b820191906000526020600020905b81548152906001019060200180831161270057829003601f168201915b5050505050908060040180546127329061332d565b80601f016020809104026020016040519081016040528092919081815260200182805461275e9061332d565b80156127ab5780601f10612780576101008083540402835291602001916127ab565b820191906000526020600020905b81548152906001019060200180831161278e57829003601f168201915b5050506006840154600785015460088601546009909601549495919490935060ff909116915089565b600081815260016020818152604080842081516101208101835281548152938101549284019290925260028201546001600160a01b031690830152600381015460608301526004810154608083015260058082015460a0840152600682015460c084015260078201548493929160e084019160ff169081111561285957612859612b30565b600581111561286a5761286a612b30565b81526020016008820154815250509050600042826060015161288c919061331a565b905062093a808111156128be5760648260a00151605a6128ac91906132db565b6128b691906132f8565b949350505050565b6203f4808111156128dc5760648260a0015160326128ac91906132db565b620151808111156128fa5760648260a0015160196128ac91906132db565b5060009392505050565b6040518061014001604052806000815260200160006001600160a01b03168152602001606081526020016060815260200160608152602001606081526020016000815260200160008152602001600015158152602001600081525090565b8280548282559060005260206000209081019282156129a8579160200282015b828111156129a8578251829061299890826133b0565b5091602001919060010190612982565b506129b4929150612a1e565b5090565b604051806101200160405280600081526020016000815260200160006001600160a01b031681526020016000815260200160008152602001600081526020016000815260200160006005811115612a1157612a11612b30565b8152602001600081525090565b808211156129b4576000612a328282612a3b565b50600101612a1e565b508054612a479061332d565b6000825580601f10612a57575050565b601f016020900490600052602060002090810190611c7f91905b808211156129b45760008155600101612a71565b600080600060608486031215612a9a57600080fd5b505081359360208301359350604090920135919050565b600060208284031215612ac357600080fd5b5035919050565b6020808252825182820181905260009190848201906040850190845b81811015612b0257835183529284019291840191600101612ae6565b50909695505050505050565b60008060408385031215612b2157600080fd5b50508035926020909101359150565b634e487b7160e01b600052602160045260246000fd5b60068110612b6457634e487b7160e01b600052602160045260246000fd5b9052565b898152602081018990526001600160a01b0388166040820152606081018790526080810186905260a0810185905260c081018490526101208101612baf60e0830185612b46565b826101008301529a9950505050505050505050565b6000815180845260005b81811015612bea57602081850181015186830182015201612bce565b506000602082860101526020601f19601f83011685010191505092915050565b600082825180855260208086019550808260051b84010181860160005b84811015612c5557601f19868403018952612c43838351612bc4565b98840198925090830190600101612c27565b5090979650505050505050565b6000610140825184526020830151612c8560208601826001600160a01b03169052565b506040830151816040860152612c9d82860182612bc4565b91505060608301518482036060860152612cb78282612bc4565b91505060808301518482036080860152612cd18282612bc4565b91505060a083015184820360a0860152612ceb8282612c0a565b91505060c083015160c085015260e083015160e085015261010080840151612d168287018215159052565b5050610120928301519390920192909252919050565b6020815260006107626020830184612c62565b634e487b7160e01b600052604160045260246000fd5b604051601f8201601f1916810167ffffffffffffffff81118282101715612d7e57612d7e612d3f565b604052919050565b600082601f830112612d9757600080fd5b813567ffffffffffffffff811115612db157612db1612d3f565b612dc4601f8201601f1916602001612d55565b818152846020838601011115612dd957600080fd5b816020850160208301376000918101602001919091529392505050565b600082601f830112612e0757600080fd5b8135602067ffffffffffffffff80831115612e2457612e24612d3f565b8260051b612e33838201612d55565b9384528581018301938381019088861115612e4d57600080fd5b84880192505b85831015612e8957823584811115612e6b5760008081fd5b612e798a87838c0101612d86565b8352509184019190840190612e53565b98975050505050505050565b60008060008060008060c08789031215612eae57600080fd5b863567ffffffffffffffff80821115612ec657600080fd5b612ed28a838b01612d86565b97506020890135915080821115612ee857600080fd5b612ef48a838b01612d86565b96506040890135915080821115612f0a57600080fd5b612f168a838b01612d86565b95506060890135915080821115612f2c57600080fd5b50612f3989828a01612df6565b9350506080870135915060a087013590509295509295509295565b80356001600160a01b0381168114612f6b57600080fd5b919050565b600060208284031215612f8257600080fd5b61076282612f54565b6000602080830181845280855180835260408601915060408160051b870101925083870160005b82811015612fe057603f19888603018452612fce858351612c62565b94509285019290850190600101612fb2565b5092979650505050505050565b600061012082019050825182526020830151602083015260018060a01b036040840151166040830152606083015160608301526080830151608083015260a083015160a083015260c083015160c083015260e083015161305060e0840182612b46565b5061010092830151919092015290565b600080600080600080600060e0888a03121561307b57600080fd5b87359650602088013567ffffffffffffffff8082111561309a57600080fd5b6130a68b838c01612d86565b975060408a01359150808211156130bc57600080fd5b6130c88b838c01612d86565b965060608a01359150808211156130de57600080fd5b6130ea8b838c01612d86565b955060808a013591508082111561310057600080fd5b5061310d8a828b01612df6565b93505060a0880135915060c0880135905092959891949750929550565b6000806040838503121561313d57600080fd5b61314683612f54565b946020939093013593505050565b6000806000806080858703121561316a57600080fd5b5050823594602084013594506040840135936060013592509050565b8981526001600160a01b0389166020820152610120604082018190526000906131b18382018b612bc4565b905082810360608401526131c5818a612bc4565b905082810360808401526131d98189612bc4565b60a0840197909752505060c081019390935290151560e08301526101009091015295945050505050565b634e487b7160e01b600052603260045260246000fd5b634e487b7160e01b600052601160045260246000fd5b60006001820161324157613241613219565b5060010190565b6020808252601290820152712737ba10383937b832b93a3c9037bbb732b960711b604082015260600190565b60208082526017908201527f50726f706572747920646f6573206e6f74206578697374000000000000000000604082015260600190565b602080825260169082015275109bdbdada5b99c8191bd95cc81b9bdd08195e1a5cdd60521b604082015260600190565b80820281158282048414176132f2576132f2613219565b92915050565b60008261331557634e487b7160e01b600052601260045260246000fd5b500490565b818103818111156132f2576132f2613219565b600181811c9082168061334157607f821691505b60208210810361109e57634e487b7160e01b600052602260045260246000fd5b601f8211156133ab57600081815260208120601f850160051c810160208610156133885750805b601f850160051c820191505b818110156133a757828155600101613394565b5050505b505050565b815167ffffffffffffffff8111156133ca576133ca612d3f565b6133de816133d8845461332d565b84613361565b602080601f83116001811461341357600084156133fb5750858301515b600019600386901b1c1916600185901b1785556133a7565b600085815260208120601f198616915b8281101561344257888601518255948401946001909101908401613423565b50858210156134605787850151600019600388901b60f8161c191681555b5050505050600190811b01905550565b6020815260006107626020830184612bc456fea264697066735822122064d7360e5b775045b899d3bb06f36fdebd32dc1753e50fbc759acef95e024dc364736f6c63430008130033",
  "linkReferences": {},
  "deployedLinkReferences": {}
}